:100000000C9422150C94D7210C94B0210C944A1511
:100010000C944A150C944A150C944A150C944A15E4
:100020000C944A150C944A150C944A150C944A15D4
:100030000C944A150C944A150C944A150C944A15C4
:100040000C9466210C944A150C9424220C94FE21E5
:100050000C944A150C944A150C944A150C944A15A4
:100060000C94831F0C944A15000000002300260006
:100070002900D600030304040405050C0C00FE0748
:10008000FE0700015D02B603FD200500882D210753
:10009000710A2D2A01220833492D222A01230E75C7
:1000A000086D9222914A4A25291201240D7508AD46
:1000B0006293B45924320B01250D75086D4292DC10
:1000C00052B2882200260F75086D62915024961254
:1000D000118524012706314A2D0628097309AD220E
:1000E000496909290A73092D62492949002A0B55D2
:1000F000182D6291944AB6002B0A5518AD82A15270
:1001000030042C0833F96C2449002D0615382D0ACB
:100110002E0933F96C229308002F0975082DD3722C
:100120000C02300D7508AD629134B5485A080031A3
:100130000B7508AD62A248305301320C75086D266C
:10014000B16048140B16330C75082D8AB1985416FB
:100150009900340D7508ED62A24852A4168C003542
:100160000C75082D8C11A5A02C3201360D7508AD2B
:1001700044B1604449169900370B75082D8AB16067
:100180002C3106380E75086D2631596412934526B8
:1001900000390E75086D26319144128C8544003A61
:1001A0000B73F96C2293686412013B0B73F96C2298
:1001B00093A82409003C087409ED4219333D073522
:1001C000282DAA053E0974092D8299B2013F0C75AC
:1001D000086D26B18C71500800400D75086D2631F0
:1001E000D124A2129D00410B7508AD629134D94D06
:1001F00016420D75082D4829A1C828255401430C25
:1002000075086D263161B6C80400440F75082D4885
:1002100029A14828128A842A00450A75082D8C4194
:100220004A3058460B75082D8C414A301100470C56
:1002300075086D263161D22C3201480A75082D628D
:100240006A37B500490973092D26A15C064A0C7569
:1002500008AD66C12CA19008004B0E75082D62A256
:1002600048922C124A89054C0875082D82792C4D2C
:100270000C75082D62B2C92422530B4E0D75082D42
:1002800062B29124229AC9024F0B75086D2631DDA6
:10029000221300500B75082D283159259808510B51
:1002A00085F86C26315D52A601520C75082D283157
:1002B0005925292516530C75086D2631E9541699D0
:1002C00000540975082D4AC13C01550A75082D6274
:1002D0007A8B4C00560E75082D626A91A44828123C
:1002E0000B01570C75082D625A2292C85A00580DFE
:1002F00075082D62B2485A4A9A2C00590C75082D7F
:1003000062B2485A3013005A0975082D8AB11C0B85
:100310005B0873092D48390D5C0975082D82D11CC5
:10032000035D0873092D4639115E093548AD6291A8
:10033000B4005F0615F82C0A6007226A2D4201619D
:100340000A55086DA6915A8400620C75082D822901
:100350004AB2914402630B55086D2631612C32017B
:10036000640C75082D53946622892400650A55088B
:100370006D26B1EB0400660C7508AD44293152308E
:100380000D00670C75E86C6AB20851169900680B8D
:1003900075082D82294A32B500690973096D82A258
:1003A0002C036A0C94E9ECC2B234912822016B0C44
:1003B00075082D8269A2C82825166C0873092D447A
:1003C00079196D0C55082D245924114944166E0ACB
:1003D00055082D224A32B5006F0B55086D2631B5F0
:1003E000C80400700D75E82C224AB29144120C0228
:1003F000710C75E86C94662289249800720A55087D
:100400002D224AC24400730A55086D26D1690500A1
:10041000740C75086D82315230292401750A550813
:100420002D629A249200760C55082D62B24852240F
:100430001602770B55082D622A11492E00780B55AC
:10044000082D6291B494B400790D75E82C624A12BB
:1004500049501699007A0855082D6AD90A7B0B7401
:1004600009AD24C1883014147C06710A2D0E7D0C50
:1004700074092D84A1A0241811017E0A35486D420B
:100480009288280200000018E06405AAE0C90590DF
:10049000E12E05F4E193055BE1F806DFFFFFE000E4
:1004A00009880A39FE0F01E0010C880A391E881CF0
:1004B0000F0702E0020D880A39288F9447CA6500A9
:1004C000E0030E880A397EA0435428128A02E00411
:1004D0000E880A397EA0430E71C82100E0051188FC
:1004E0000A3924128A3A4485A20E51A128E0060C4A
:1004F000880A39285FA6870703E0070E880A39288B
:100500003F522295102501E0080D880A39283F52F4
:1005100022B54A02E0090D880A39288F94E99172C0
:1005200019E00A0F880A39285FE610158A84A200AC
:10053000E00B1297FAF8A491A4946CB348A6B448BF
:100540005004E00C0F850CB9821149441251122657
:1005500001E00D10880AF9C4C2882449E7483046F2
:1005600002E00E0F98FAF8C45222CDA4322A8E036C
:10057000E00F10880AB9689289A9463C446C2400AF
:10058000E0100C880A393E984C870703E0110E886A
:100590000A390E26D3E140321D0CE0120E880A39CA
:1005A0000E2613C944321D0CE0130F880A390E229F
:1005B0004D870349D34100E0140F880A390E224DBC
:1005C000241349D34100E0150E880AB9689295C7F3
:1005D00083C44602E01613880AB968C14828268AEF
:1005E0008926E248304602E0170C880A390E948FBB
:1005F000870702E01811880A390E62514C14134D16
:10060000C4E28300E01910880AF9A4119964E5187E
:10061000B1516500E01A14880AF9A4A158241409FC
:10062000C54493C458282A03E01B13880AF942D210
:10063000496818894962A160282A05E01C12860CC5
:10064000B9526693C82C12914562A11100E01D0EAB
:10065000850C796414194544218900E01E12870B2A
:10066000792A87A828248B8842D2480500E01F11E8
:10067000870B792A87A86422954CA4910A00E02070
:100680000D870B3922D901BF032219E0210E880AF8
:100690003924EA90C3073A4403E0220F880A3984D8
:1006A000134AC4E42542190AE0230E770B396493F8
:1006B00049A4D4125913E0240C880A39C211935F5B
:1006C000C201E0250C770B39A291522FD100E02610
:1006D00013880A392412A28814A14828219290A2D2
:1006E00000E02711880A79E280489B485BA5120741
:1006F0004400E0280D770A3922D901DF01910CE08E
:10070000290C870A792A51D5C38700E02A0F770A76
:10071000390E9189F42099480F01E02B10880A398D
:100720000E128AF830A188C50701E02C11870A79DA
:100730002AB2C9443291AC492AD100E02D14880A6A
:10074000396AC11029120B9122A24864927210E0FA
:100750002E0B850C794663D29602E02F0C860B791E
:10076000487440898B01E0300A860BB944471D0F5D
:10077000E0310D860BB94447959044F100E0320D0D
:10078000860BB944474948A2E301E0330B860BB915
:100790004447893E1EE0340C870AB94687A8AE87D5
:1007A00000E0350F870AB94687A84A4C22921E02FC
:1007B000E03611870AB94687A82426114926D24374
:1007C00000E03711870AB94687A86422994826D2E3
:1007D0004300E0380D681A392ED14874357201E0B3
:1007E000390F681A392ED148DA44348D5C00E03A6A
:1007F0000F681A392ED1484434598D5C00E03B0E05
:10080000681A392ED14864D7C80500E03C0D780A33
:10081000392ED148746BE402E03D11780A392ED1AB
:100820004874129B88A6910B00E03E10780A392E7E
:10083000D148DA4434598D5C00E03F0E780A392EF5
:10084000D148645F231700E0400EA6EB381365C261
:10085000C350264C04E0410E860B7942590E070A1C
:100860004D2802E0420C681AF9868792D13602E0E0
:100870004310880AB986A158AC961B25149D01E047
:10088000440A442CF926935800E0450E661B796310
:1008900091496492168906E04615880AF901D14803
:1008A0002C1299A44CB2455223714000E0470A65CE
:1008B0000DF964142E02E04811880AB9D5243209D2
:1008C00045429150241405E0490A440C39A82209F4
:1008D00000E04A0C660B39EC003A482802E04B0E67
:1008E000880A390E71901D4807AB01E04C0E860B4B
:1008F000B984A2888E119AC800E04D10880AB968A0
:10090000C1485899649A882400E04E0C850B3963DD
:100910008787983000E04F12870B39A3A24A25320F
:100920000949A291582804E0500D870B39A3A28AE7
:1009300097983804E0510B750B396387C34C18E066
:10094000520F770B39A3A24A253289A68400E053BF
:100950000D770B39A3A28A4B4C1C02E0540D860B79
:100960003982B211A589360CE0550F880AF99254E4
:1009700026874365492D01E0560D880AB96896C35C
:10098000078A8D04E05709880A39FE0F01E0580DE7
:10099000840C3962A2C981228A01E0590A850B3987
:1009A00024FC4500E05A0E860B39823352A5429A48
:1009B0000903E05B13880A396231916832391C2AD5
:1009C0001391281603E05C11880AB99C82A1602863
:1009D0001891956A1200E05D12880AF9C2A208AD6A
:1009E00012A9446A21513008E05E0D671A3962216C
:1009F000CBE1520D01E05F0D671AB96291C3C1529C
:100A00000B02E0600D880AF9A434CB2144E404E031
:100A1000610D880AB9889C0E111B5506E0620F888B
:100A20000A39E300D1E5F02015C700E0630F880A1A
:100A3000F9C2D2C383E424070401E0640E880AF9F2
:100A4000A434CB214464A500E0650D880AF9189907
:100A50000E111B5506E0660E880AF9A434CB21441A
:100A600064A301E0670E880A79A844A643C44695AA
:100A700001E06810880A39E30099E5F0208989636C
:100A800000E0690F880AF9C252CBE12039C912018E
:100A9000E06A10880A396331D1E5709058C5310099
:100AA000E06B10880AF9C2B2C8E141629303820088
:100AB000E06C0C760BB964140B890B00E06D0C76BE
:100AC0000B79485C2C341100E06E0C671A394396A0
:100AD000C3C11A02E06F0C671AB9A28783C5140458
:100AE000E07010880A390E114B843291940E0F0673
:100AF000E07110880A390EE2E1241411298B0F02EB
:100B0000E07210780A390E114B843291940E8702EC
:100B1000E0730F780A390EE2E1241411291F04E072
:100B20007412880A39C413918414A14C44129AC9CE
:100B300000E0750C760BB964249A8C7228E076126A
:100B4000880A390E12CA445232552413CA4100E0B1
:100B5000770D860B7928224E87918402E0780D86E6
:100B60000B7928A2C388938402E0790F880AB968B8
:100B700096C3907898D84800E07A0C760BB9641444
:100B80000B898D00E07B0C760BB92824160B4D04E5
:100B9000E07C0C760BB964140B898504E07D0C763F
:100BA0000B396824160B4D04E07E0D671A396395E6
:100BB000C3C1120B01E07F0C671AB9A295C3C5141B
:100BC0000BE08010770BF9A2919844328BD4A631B8
:100BD00000E0810C770B390E13B7C34300E082129B
:100BE000770B3924119A6814998446324A4400E0FC
:100BF000830F770B79C21136898C42094700E08454
:100C00000C581A392ED1D5830400E0850D581A39B5
:100C10002ED189687A9000E0860C581A392ED1C9F5
:100C2000EA4102E0870A760BB944478D07E0880C59
:100C3000760BB944474948A278E0890B760BB94452
:100C400047898E07E08A0A750C7926366D06E08B97
:100C50000C750C7926369588CC00E08C0D750C79D6
:100C600026364944129119E08D0A850C792636DD25
:100C70000CE08E0D850C7926369588242233E08F82
:100C80000F850C79263649441291446406E0900C95
:100C9000681A792ED1D5483472E0910E681A792EEF
:100CA000D1596424498D1CE0920D681A792ED19196
:100CB00064253572E0930D681A792ED1C996D4C88F
:100CC00001E09412880A399344B14AA412A951420E
:100CD000E21800E0950D870BB9C2B28897923408EC
:100CE000E0960D760B3982B211A5441B06E0970EF3
:100CF0007809F992542607CA925A02E0980C770AAA
:100D0000B96695C34B6D04E09908770A39FE03E094
:100D10009A0C740C3962A2C9451403E09B09750B47
:100D20003924FC22E09C0D760B3982335285341332
:100D300006E09D12780A39623191683239502622D4
:100D4000512C06E09E0D96FB381365329B62220003
:100D5000E09F0D880A390E62CD0799D002E0A00D00
:100D6000661B792892438464A100E0A10E880AF9E9
:100D7000C45222CDA4322A0AE0A20C661B79289222
:100D8000B60B0500E0A30F770AB96612C9C47688CE
:100D9000D44600E0A40D750C796414194544120181
:100DA000E0A50F760BB95266934CB1482C3402E0A3
:100DB000A60C760B792841C5C3A100E0A70D860BD0
:100DC000390E214E87D12100E0A80D860B390EA1E6
:100DD000C388D32100E0A90F681AB968C1484853F5
:100DE00024182301E0AA0F870AB96615498412392D
:100DF0003C4C32E0AB11880AB96896514542919457
:100E000026361200E0AC0E661B3948B1C84814996A
:100E1000440EE0AD0E880A792C61CD114A541C03B2
:100E2000E0AE12880AF9A4A1984832324D6CA1A80C
:100E30000C00E0AF0B760B398E8A279101E0B011E0
:100E4000760BF94221512469148988842100E0B18C
:100E50000C880A396A5D2E625903E0B213880AF9D8
:100E6000A434CB21120C4524A188246401E0B309E9
:100E7000830D391E6206E0B40B780A390E629D0FAD
:100E800002E0B510780A390EB290AC1692D542073E
:100E900001E0B611780A390E62F161128A48429176
:100EA0008300E0B70C780A390E62E5C3F820E0B899
:100EB00012780A390E9250E43009450E9350E4201E
:100EC000E0B90E780A396AB955E480585A01E0BA97
:100ED00012780A390EA298C814898822A448E420FE
:100EE000E0BB12780A390EA298C814898826A24855
:100EF000E420E0BC10780A390EB290EC2092D54282
:100F00000701E0BD12780A390EB2902C7498842241
:100F10009250E420E0BE0F780A390EB2902C641291
:100F20008B0F02E0BF15880AF9A4A158307288041B
:100F30004311492822095900E0C011770B39649305
:100F4000495A28168A45226B02E0C113880A39845F
:100F5000134A6228180A868291086528E0C2117730
:100F60000B39A291522C140BC542956800E0C312B4
:100F7000880A39C2115330140C0543C190251CE076
:100F8000C40F770B3922D90187E8210E8864E0C5A8
:100F900010870B3922D90187A8F410074432E0C624
:100FA0000F770BB96615498412391C2619E0C70E54
:100FB000770BB9661549E4F030C900E0C80E870B1D
:100FC000B9661549E4F0619201E0C90F770AB942A8
:100FD000B32549282D141402E0CA14880AF942D214
:100FE00048522418894962A160282A05E0CB12776B
:100FF0000BB942B3482C129284D242412100E0CC7A
:1010000011860BB9526691DC22115924161A01E09F
:10101000CD0F760BB95266919C6291586804E0CE70
:1010200010760B796691495A6492140B8D00E0CFCB
:1010300012860B796691495A6492148BC44223003C
:10104000E0D013880AF9A4A15830321A258682A16B
:10105000200900E0D113880AB988A16028180AADD8
:101060000463A1A80C00E0D210880A39E3005125DE
:10107000596C898A6300E0D311880AF9C2D2885971
:101080001C8994E4802000E0D410770BF9A29158D9
:10109000CA522418098E00E0D511770BB9869160E9
:1010A000243499C452A23100E0D60E770BF9C22243
:1010B0004A6A25288D01E0D70F770AF9A2C2483580
:1010C0001221896300E0D811780AF9A49198A81632
:1010D000139122611900E0D911880AF9A49160A83E
:1010E0009631448A846500E0DA0F860B79427939BB
:1010F000464231A10800E0DB0E760B7942598E9111
:10110000504C2802E0DC12780AB968C14828128ADB
:10111000A55182311200E0DD13880AF9A4A16028EC
:10112000160C05232195506428E0DE13880AB9685F
:10113000C1482825188A254E82311200E0DF107739
:101140000BF9A29160249614C9CB4C00E0E01688FC
:101150000AF9C2A28824268A444491C8241612059A
:101160008300E0E113780AF9C2A28824268A442683
:10117000B190281804E0E212870B39A3A249441663
:1011800091452869E21000E0E310770B39A3A249EA
:101190004416A1A4894300E0E412860B3982B251BF
:1011A000441292844411D93000E0E50F880AF99284
:1011B00054B288344572524BE0E60F880AB968C1D0
:1011C00048587324182301E0E70B880A390E623D62
:1011D0001F04E0E80E840C3962A248924A441403CA
:1011E000E0E90A840C3942FA2900E0EA12860B3958
:1011F0008233494814114524A1993000E0EB13884B
:101200000A396231912892932E5944A2580C00E079
:10121000EC12770AB94AB1502C148B88262923097D
:1012200000E0ED13870AB94AB1502C140BC522A275
:1012300049CA4802E0EE0A430EB942124900E0EF03
:101240000D650C399322A188242249E0F012870A07
:10125000B91323C1482892148948522419E0F1098E
:10126000330EB9429200E0F20C550C399322A1885A
:101270002401E0F310770AB91323C1482892148996
:101280004832E0F410760B3982B2514412124564B0
:10129000C300E0F50F7809F99254B28844919CD4C8
:1012A00012E0F60E770AB9662951D5482C3602E0CD
:1012B000F70B770A390E515D0F01E0F80E740C3907
:1012C00062A2489224228A01E0F909740C3942FA98
:1012D00014E0FA10760C398233494814918466C2BE
:1012E00000E0FB12780C396231912892934A1691F2
:1012F000281603E0FC12780AB968C148584CA28449
:101300002211910400E0FD10780AB968C148584CD8
:10131000324D441200E0FE0F770AB99A62A1584498
:1013200054294900E0FF0A830D396C874300E1002E
:1013300010770B3948114B8C12A1452C2102E10189
:101340000E661B3946914A8814A98406E1020E688C
:101350001A390EC3492822523E08E1030E681A3991
:101360000E114B84323C1C08E1040F880AF9A434A6
:10137000CBE120B1516500E1050D770BF9A2B3CAAD
:10138000A5368D01E1060E880A794492C3078A8D3D
:101390002A03E1070E780A794492C3C3C446950133
:1013A000E10812870BF9A29158CA52241809468203
:1013B0002300E10913870BB98691602418094D2693
:1013C000B194680C00E10A0F780A39E3005125D97D
:1013D0001215C700E10B10780AF9C2D28839122918
:1013E000C9014100E10C12870BF9C2C148A690283F
:1013F000248DC4622300E10D11770BF982914C21F9
:1014000051481A89C54600E10E10770BF9A2915890
:10141000CA25168A245500E10F0F760B79422993CD
:10142000505E26A11400E1100A750CB942366D0613
:10143000E1110C750CB942369588CC00E1120D759E
:101440000CB942364944129119E1130D581A392E3C
:10145000D148741AB900E1140D581A392ED148DA5E
:10146000347201E1150E581A392ED14844348D5C7E
:1014700000E1160D581A392ED14864357201E11772
:101480000C581A792ED169241A39E1180C581A7996
:101490002ED159243572E1190C581A792ED1912484
:1014A0003572E11A0C581A792ED1C9243572E11B14
:1014B00014880A399344B1C8244992248B4842E2E3
:1014C0001800E11C12780A399344B1C824491691D6
:1014D00084C43100E11D12870BB9C2B24884129353
:1014E000C42491913408E11E11770BB9C2B248842B
:1014F00012934446D22000E11F0C670B7923D7508A
:10150000F41205E1200E770B390ED1D96422951E15
:1015100002E1210D770B392E95C8DAE14100E12275
:101520000D671B390ED1D964223D04E1230C671BE2
:10153000392E95C8DAE120E1240F770B390EB24934
:101540008A2824951E02E1250E671B390EB2498AAE
:1015500028243D04E1260C571B390EB2C9447A08F1
:10156000E1270C571B392E95C8DA4100E128107786
:101570000BB96629A1908A34128B8D00E12910776E
:101580000BF9A291582493242D251A03E12A0E77F2
:101590000B390E515148452A3D04E12B0C850CB9FD
:1015A000629352302700E12C0C850CB982395566C4
:1015B0002100E12D0D582A79E300C9212A0E01E10D
:1015C0002E0D582AB9C2D243440E8802E12F0F864D
:1015D0000B79422993507E99845200E1300B880A9E
:1015E000390E623D1F04E13112880A390EB290AC07
:1015F00016928564B5D04100E13211880A390E6235
:10160000E5C324149184220701E1330E880A390EC0
:1016100062F1617C181F04E13415880A390E92507A
:10162000E430094524A1C861128A1C04E1350E8802
:101630000A396AF9728A03626905E13614880A393F
:101640000EA2982826324522A20829123908E1372D
:1016500014880A390EA2982826324522A289281217
:101660003908E13811880A390EA298C814AB894CA0
:10167000B18300E13914880A390EB2902C240B1D75
:1016800026A18824143908E13A11880A390EB2904B
:101690002C240B99C4E28300E13B0C750CB96293D6
:1016A00052301300E13C0C750CB982992AB310003A
:1016B000E13D0B571A39C392A33404E13E0B571A8C
:1016C000B9A2C28B3808E13F0E680AB92387702897
:1016D0007C888401E14011870BB96629592429527D
:1016E000E92432C900E14110770BB9662959242950
:1016F000D249649201E1420F870BB9662959A4AA25
:1017000093C82403E1430F770BB9662959A4D24942
:10171000649201E1440F770B390E5195892445926B
:10172000C500E1450F770B390E5195896422994424
:101730000CE14611880A390E622D14492822094508
:101740002207E14710880A390E622D1449442522E8
:10175000891CE1480E770BB986A3C3219272380425
:10176000E1490E870BB986A3C34324E57008E14A1B
:101770000D780A390E62E5834C6801E14B0E860B49
:10178000390E7500890E128A00E14C0E681AB9658F
:10179000128A84A226110BE14D0E770AB948928372
:1017A000A444345100E14E0C770A79659483C54610
:1017B00015E14F0D770A39A434CBC1429302E150B1
:1017C0000F780AF9A41199644D62A3CA00E1510F80
:1017D000770BB96612C9C47688D44600E1521178F5
:1017E0000AF9C2A208AD12A98544C12000E1530F35
:1017F000880AF9A434CBE120314A4900E1540E783B
:101800000AF9A434CB2162949200E1550D780AF9CB
:10181000A434CB21446402E1560D780AB9884C8780
:10182000888D2A03E1570D770BF9C222CBC1288D91
:1018300001E1580D770AF9A2C283C5248E01E1594E
:101840000D681AF9A434CB210E3904E15A0B671B39
:10185000F9A2B3CA1D70E15B0D680A392ED1487434
:10186000357201E15C0F680A392ED148DA44348DB3
:101870005C00E15D0F680A392ED1484434598D5C13
:1018800000E15E0E680A392ED14864D7C80500E130
:101890005F0E750B792612CA4142914C00E1600A35
:1018A000740C7924235D08E1610B750C79266A229A
:1018B0006D05E1620D750C79266A9221453201E1D0
:1018C000630F760BF964A3882424B1092500E16431
:1018D0000C750C396E4419453201E1650D750CB972
:1018E000B4512414C90400E1660C750C396A2299BC
:1018F00048A604E1670F750C7926128A6422A14874
:101900002600E1680D750C7926128A84265202E1C0
:10191000690E860B792822160B8924A100E16A0A38
:10192000840C792423BD10E16B0C860B792822A14D
:101930004C4703E16C0F860B792822A1682A2449C1
:101940002800E16D0F860BF964A3882424B10955A2
:1019500000E16E0E860B390E41615548925000E150
:101960006F0E860BB946326145C424A100E1700DAB
:10197000860B398C6A4299500900E1710F860B7908
:10198000282292842262925000E1720E860B7928FE
:1019900022264951261A01E1730D760B390E21CA10
:1019A000A1423A04E17408730C792A7AE1750B7646
:1019B0000B398CC2C35068E1760C760B398CC2436C
:1019C000507808E1770B760B39444C87A006E17814
:1019D0000C760B390E41A1517808E1790D760B395F
:1019E0000E41E121443A04E17A09760B398CFA0080
:1019F000E17B0E760B390E21928422221D02E17CBE
:101A00000C760B390E21D221A801E17D0E860B390F
:101A10000E214AC552211D02E17E09840CB92427FA
:101A20003DE17F0C860B398CC2C350D100E1800CA4
:101A3000860B398CC24350F110E1810B860B39447F
:101A40004C87A00EE1820C860B390E41A151F1109A
:101A5000E1830D860B390E41E121C47408E184094C
:101A6000860B398CFA01E1850E860B390E219284A2
:101A700022623A04E1860C860B390E21D221A8039A
:101A8000E1870D870B390E9392C5A57610E1880D7D
:101A9000870B390EB2C9A4D74300E1890F870B39F0
:101AA0000EB2C9847491AC1D04E18A0F870B390E04
:101AB00094122532AD580E02E18B0E870B390E5170
:101AC00089F122593B08E18C0F870B390EB28971DD
:101AD0003291AC1D04E18D0E870B390E514BC5526E
:101AE000B11C06E18E0F870B390EB2C9DA64225998
:101AF0003B08E18F0F870B390EB2C944B268991DBC
:101B000004E1900B441C792487880400E1910B4484
:101B10002C792487880400E19208521D394804E199
:101B20009308621D398804E1940B561B394424B193
:101B30008824E1950C661B39442439544412E196FB
:101B40000E860B394424B18824169104E19713873B
:101B50000B3923C18824628A8CD22296510400E179
:101B60009812880AB92331496492B22996641A45B9
:101B700000E19912880A79233249645368144B3280
:101B80008D2200E19A13880A39C2E283242289A8AF
:101B90001C26C1900500E19B0E880A792C870F1343
:101BA000B11C2005E19C10880A396A990EB2902C6C
:101BB000644A3A04E19D15880A7982B150CC1491A7
:101BC000440E92504442092501E19E0F880A391EB5
:101BD0006462D96122211E06E19F0D880A792C8753
:101BE00087C9559C06E1A014880AB9682209E51244
:101BF00091842292D024342301E1A112880A792C05
:101C000007B124288A4982E2880500E1A211880AE6
:101C1000792C07B184229650C4110B00E1A31288DD
:101C20000A792C07B12414114B28E2880500E1A49D
:101C30000D880A3928EFA0CB917219E1A50F880A07
:101C400039265FE810158A84A200E1A610880AB937
:101C50009C82A16028180A924C03E1A70D880A799A
:101C60002C870F14AB1A00E1A811790A390E93CA18
:101C70004A25524999540E03E1A912C6EB38A2C273
:101C800019A972384C4833611400E1AA0CC6EB382C
:101C9000C2790DE61500E1AB11C6EB7883B211E510
:101CA00070989468436900E1AC0BC6EB7883790DBA
:101CB000E701E1AD0DC5EC3882B211E5F04301E179
:101CC000AE0CC5EC38FE5021CD8401E1AF10790A8D
:101CD000792E7140A8160DCE918200E1B00B860BD3
:101CE000792847893E1EE1B108C1EE380E05E1B200
:101CF00011880A390EB1224572884888B54300E13F
:101D0000B312880A39A59160C8141A0543B348581C
:101D100004E1B410870BF9C2D1E14C228A4526D4E4
:101D200000E1B511860BB9449124896836924CD2F2
:101D30004400E1B612880A3984A25499448966891C
:101D40005044A200E1B714880A3984A2C45048A2C2
:101D500044B3844491600400E1B812880A39C2C3D4
:101D600009E530121D2496082500E1B910880AB94A
:101D7000689408C5723C486C2400E1BA12880A399C
:101D8000C213922C348A4D42A5C94428E1BB108865
:101D90000A390E622D1449442522891CE1BC0F88A2
:101DA0000AB968C148587324182301E1BD10681AA4
:101DB0003924C238200E098A2A6100E1BE10680A5F
:101DC000F924E23820120C95C21100E1BF11880AF3
:101DD00039C2C309E530124D548C3200E1C0158878
:101DE0000A7964919028448988B444482151242672
:101DF00001E1C112880A396216490A69A434A2A411
:101E0000486C01E1C20D880AB96896C3078A8D043F
:101E1000E1C30F880AB968A308AD5B64142301E12C
:101E2000C410880AB96822C981E43411C94800E1A4
:101E3000C50D880A390EA4C3C9D38100E1C60D8738
:101E40000B39262ED4C343A402E1C70F880A39C434
:101E50005462912A0947C202E1C80F880AB968C1D1
:101E600048587C10119900E1C915880AB9441151EC
:101E70006814A28428A1516894248A00E1CA1388B6
:101E80000A7986A25830140D4543C158483801E1FB
:101E9000CB12880A3987B1504C129B9842A2C429B0
:101EA00000E1CC14880AB9A3A12CA2484414494AE1
:101EB0000986C21100E1CD15990A79728A6439CC7C
:101EC00001939439609232071C06E1CE13980A7987
:101ED000E20039402C0748691299482214E1CF0EDC
:101EE000970B394AB1508CAAEB2100E1D0147C0841
:101EF000390E76981C1291C42287C8EC30391CE147
:101F0000D1149B09390E75902C2A13CA668AB2A87F
:101F10001C7428E1D2117B09390EB5A84C289B29E5
:101F2000CAA28702E1D318ACF878C4A2C3E830395A
:101F30003CD4211491842292280B6D00E1D419AB7A
:101F4000F938E7802A29160744B4D0011795884A42
:101F50005022070C01E1D512A9FA386C1411654220
:101F60003C540FD6C3C100E1D6139A0939C807DA29
:101F70001D2287C82172881C7220E1D7139AF93874
:101F80000E74881C2287C8218737320D00E1D81AC9
:101F90009CF8780EA33824148784E290501C123BDE
:101FA000C4E29048E97018E1D9188B0939E88050EB
:101FB0002D0E08852EE98039201207480E2200E1F7
:101FC000DA189C08390E9638A41892C446A24845DF
:101FD00072881CEEB08301E1DB0F880A3988215931
:101FE00068F464A38A00E1DC199BF93828C29044A4
:101FF000169A882EA28BC822A3482572500C00E1A5
:10200000DD169C08390E9670844C09470E97708433
:102010004C09470E06E1DE189C08390E1649169544
:102020002C2A5954B2A86451C9A292E560E1DF118B
:1020300099FAB85E8492C3F070B084432600E1E060
:102040000A8A0939C887FF03E1E1168B0939E8805C
:1020500043EC209A862407C92174081D6200E1E23E
:102060000B970B39FE61529B06E1E30F970B390E7C
:10207000519D429294D93400E1E410A70AF9A2B329
:1020800052E52071A1D44600E1E516BBF9F82172B2
:1020900008B91A994EA25D2363491C308700E1E616
:1020A00015990AB96A2A07493414C914C914C914FC
:1020B0000D5D00E1E7128A09390EA4E8A122BA48B1
:1020C0002C92D3E100E1E81EBCF838E9006B291638
:1020D0008744942474C849421149241191242892B8
:1020E000038800E1E91ACCE8B8EB80C8584CA22478
:1020F00047E69091BEC32221524C282602E1EA0D08
:10210000880A796CA4906858F234E1EB148A097952
:102110000E91C3E5203A840E91C321728800E1EC50
:10212000148B0939E230394C0E9383E41039440E94
:102130000A1AE1ED16A9FA386C4151309258074855
:102140002A7280A422071C06E1EE17AAF9B8C6B1CC
:102150006034168D4583B1F0240E8BC3E2B000E1EC
:10216000EF128A0939BE4324615154129AC82107DB
:1021700002E1F018ACF87845528A5044138EC4122C
:102180003984449284F2130B00E1F1107A09390E7C
:1021900073D8610E3BCC618701E1F2137A093922D1
:1021A00087382C7288C32287382C7208E1F3107AA2
:1021B00009390E71E8410E3CC4A18701E1F4107A9F
:1021C00009B90E71E0410E3DC4618701E1F50E7A57
:1021D00009394E87C8E107CA4114E1F611C7EA7808
:1021E0004A258948226A39DCC2D900E1F710C9EAD8
:1021F00038DEFC49429155E7802000E1F80B661A71
:102200007983B211E540E1F90B661A39A2C219A926
:1022100062E1FA0C661A390E14D24C1805E1FB0B78
:10222000661A392C25DA501AE1FC10750B799222C6
:1022300011951495A4480400E1FD0CA7FBB846874E
:10224000A8BE1E02E1FE11A7FBB84687A8968964C6
:102250002299480F01E1FF14A7FBB84687A8642222
:10226000994826928964223D04E20012A7FBB846F1
:1022700007498412994A6715CB6100E2010FA7FB59
:10228000B846074A139554A91C08E2021597FB3873
:1022900043215944144992C426414950120C01E289
:1022A000031198FB384331496CD6721D4BA2A10033
:1022B000E2040D95FB3863A2C381341306E2050DD9
:1022C000770AB99A62A1528C6219E2060F561B393D
:1022D000422189E41091844200E2070C561BB95256
:1022E0002487885202E2080B650CB96293526C5243
:1022F000E2090C650C392AB350651602E20A0D5743
:102300001A3942A189E430514AE20B0E571A394278
:102310002189E430918C12E20C0F561B394291490D
:10232000A43289882201E20D0E750C794292DC52AA
:10233000B2882200E20E0C6809F9868792D1360233
:10234000E20F138BF9F841B299C872881D6222F32B
:102350004C0E12E2100CB7E9B84687A87E3D04E2A5
:102360001119BBE9B8C6C768681A9A86A6A1696838
:102370001A8C86A6A1831000E2121ABBE9B8C6C760
:1023800068681A9A86A6A16968120B4644A169E892
:102390002004E21313B7E9B84687A84A4C225291A9
:1023A000A428490F01E21414B7E9B84687A84822C7
:1023B00049515291A428490F01E2150EA6EA38139B
:1023C00065C2C350264C04E2160D95F9386369A224
:1023D000922C2300E2170E58FBF824C2892C241AF1
:1023E0004A04E2180B460C7928C1905004E2190EF9
:1023F000680B792CE1102D1814CB00E21A138A0A0D
:10240000790E913824640B07A9C1B01C2204E21B89
:10241000138AF938E2A0386A50329D4342D14950BC
:1024200022E21C0B83F93842D150D400E21D0D8604
:10243000F938A271E0A13C9B01E21E0E89F9381E19
:10244000E8209B1D3A1E03E21F0818FA38240AE20E
:10245000200938FA38C42A0AE2210D68FAF8C46A59
:102460001299442651E2221198FAB8B5496412999A
:102470008422A148280AE2231699FA782E7180282E
:10248000280A4AB20843C2901C10B900E2241599E8
:10249000FA782E9343E4103145429643E410995C58
:1024A00000E2251599FA78A291C3A10E90649103D8
:1024B0002459E480C300E2261499FA78A291C3A1BA
:1024C0000E9003E40039400E380CE2271B9CF8788C
:1024D000A2C183E4409903227340640E88CC01B109
:1024E000382072A008E22812790A390ED4492C2229
:1024F0008A842459A60702E22911790A390E93CA5F
:102500004A25524999540E03E22A0F99FAF80171AB
:10251000C074CFE2380400E22B0C572BB96695C388
:10252000450500E22C0E87FBB86695C345312A0DA0
:1025300002E22D0F87FBB86695C3451D14C9130031
:10254000E22E1197EBB86695C3451D128A46A2A1EB
:1025500000E22F0F97EBB86695C345312D98160111
:10256000E2300F87FBB86695C3451D140BC600E229
:102570003112782B3923B1886C548B900EB188249A
:1025800002E23212882B39C371403422A24C88B641
:10259000880C00E2330C552B7962C1A0283201E28D
:1025A0003411771B394229A55828168A852AA10497
:1025B000E2350E781BF96475D0610E318B00E2367E
:1025C000157A09390E9238201207CC0173C01C10FD
:1025D000394800E237157A09390E92382012994DA0
:1025E0006693D91C10394800E238157A09390E92E1
:1025F000382012A94C2A93CA1C10394800E239111C
:102600007A09390E12D2643ABD9A26070900E23AD5
:10261000137A09390E129691844A111D229483046B
:1026200000E23B147A09790E9238600E9803E68036
:10263000481C103908E23C137A09790E923860364A
:10264000994D66937440E420E23D137A09790E9225
:10265000386052995426957440E420E23E0F7A097E
:10266000790E9291F5BA32A21C04E23F117A0979EF
:102670000E128A45643549222C0701E240115C188C
:10268000F9E2C03884123145B21C2409E241167CBB
:1026900018F9E2C038300EA1444C912CA248968320
:1026A0002401E242137C08390E9438680E93C3E487
:1026B0003039E86001E243137C08390E9438880E03
:1026C0009A83E62039E86001E244137C08390E94CD
:1026D00038A80EA143E81039E86001E245137C08F0
:1026E000390E9438C80EA803EA0039E86001E246C2
:1026F000107C08390E9438E8EC2C071D2C00E247BA
:10270000117C08390E9438E8107D95830E1600E28E
:1027100048137C08390E9438E8203C040F4139E80E
:102720006001E249137C08390E9438E8303BC80E4A
:102730003239E86001E24A137C08390E9438E840E7
:102740003A8C0E2339E86001E24B137C08390E9471
:1027500038E85039500E1439E86001E24C137C0817
:10276000390E1439840E9A83E6A039E46001E24DF3
:10277000137C08390E9439A00EA143E8103AE060AA
:1027800001E24E127C08390E14B21D5007D401E547
:10279000830500E24F0D7C08390E94EAD9EBC102A3
:1027A000E2500E7C08390E14E321FAF16001E25187
:1027B000127C08390E94DB4178081E8287D8C1024A
:1027C000E252137C08390E9443E8303BC80EB283C2
:1027D000E86001E253137C08390E9483E4403A8C9C
:1027E0000EA3C3E46001E254127C08390E94C34383
:1027F000E44039500E0F1300E255127B09390E7573
:10280000901C2407C94172D0A100E256117B0939FE
:102810000E75901C74300685C14301E257117B0987
:10282000390EC5A030283C0685C14301E258071186
:10283000093902E259082309B92401E25A0A350983
:102840003943114902E25B0D4709B98391502422B3
:10285000C900E25C105909F921E14830921449910C
:10286000E400E25D081909392239E25E092909B953
:10287000C2911CE25F0B390939C391602407E26001
:102880000C4909B9538291A4480EE261105909F923
:1028900021E1483092144991E400E262169C08B9A3
:1028A00022D90E969CE430492E7398249739EC6017
:1028B000E263127A09390E94608448B11029C1C8C4
:1028C0008100E2640A680A39A6871F0AE265118955
:1028D0000A391E2A590E942C074A96C300E266153F
:1028E0009A0979723A54B2C821922C738824CB1C6D
:1028F0007220E267118A0939BE432459E6104996CD
:1029000039E440E268138A09790E91031D22B1C8A7
:1029100021128B1C7220E269138A0939BE432411EB
:102920008A1C228950E4900301E26A1499FA78A281
:102930009148E540C972A0643950B21C06E26B0AA6
:10294000880A3928FF6500E26C13990A391E6A313A
:10295000594C1693C5643159EC30E26D14880AB9AC
:102960006822C9A412A98422A44864142301E26E37
:102970000E850C795644B348D25A0800E26F168C83
:1029800008390E968C72488492A20E93442811390D
:10299000EC60E27008731AB9723AE2710E751AB9F6
:1029A00064915024140C2D01E27210751A7928A13B
:1029B0004828128A84261401E2730D751A79584248
:1029C000114A684211E2740B731A394299281300B4
:1029D000E2750E840A39622109454211C502E27688
:1029E00012850AF94211C944128A482692500C00F5
:1029F000000000000000240027002A000000000062
:102A0000250028002B00040404040404040402022A
:102A1000020202020303030303030102040810205D
:102A20004080010204081020010204081020000068
:102A3000000800020100000304070000000000007D
:102A40000000D52611241FBECFEFD8E0DEBFCDBFDA
:102A500011E0A0E0B1E0EAECFFE402C005900D92C5
:102A6000AA37B107D9F723E0AAE7B1E001C01D9268
:102A7000A13EB207E1F715E1C2E2D5E104C021971A
:102A8000FE010E94CA27C132D107C9F70E948824DB
:102A90000C94E3270C940000FC01538D448D252FEA
:102AA00030E0842F90E0821B930B541710F0CF96E8
:102AB000089501970895FC01918D828D981761F01A
:102AC000828DDF01A80FB11D5D968C91928D9F5F65
:102AD0009F73928F90E008958FEF9FEF0895FC0110
:102AE000918D828D981731F0828DE80FF11D858DC3
:102AF00090E008958FEF9FEF0895FC01918D228D56
:102B0000892F90E0805C9F4F821B91098F739927DA
:102B1000089580E090E0892B29F00E942C1F8111FC
:102B20000C940000089580E00895DC011A96ED9160
:102B3000FC911B9720E030E00994DC011696ED91A2
:102B4000FC91179720E030E040E069E10994DC0156
:102B50001696ED91FC91179720E030E040E068E197
:102B600009949A01DC011696ED91FC911797462F76
:102B700067E10994EF92FF920F931F93CF93DF9336
:102B80001F92CDB7DEB77C018B01D8016C91673104
:102B9000E1F078F46531A0F1F80141814983D70172
:102BA0001696ED91FC91179720E030E0C70109954A
:102BB00024C06A31A8F06E3F19F5F80141814983BC
:102BC00069E2C7010E94951518C0F80181818983C7
:102BD000AE014F5F5F4F61E0C7010E94B1150DC0AC
:102BE0000F5F1F4FD7011696ED91FC91179720E0CC
:102BF00030E040E0C7010995C8CF0E5F1F4FC5CF39
:102C00000F90DF91CF911F910F91FF90EF9008955A
:102C1000462FDC011696ED91FC91179720E030E0ED
:102C200065E10994AF92BF92CF92DF92EF92FF924B
:102C30000F931F93CF93DF93EC01693031F489E256
:102C400091E0998388831C8A7FC079016B30E1F120
:102C50006F3009F444C06A3009F078C0EA85FB851A
:102C600020E030E040E068E20995EE81FF8120E05D
:102C700030E040E064E1CE01099541E06BE4CE0133
:102C80000E949515E881F981448169E2CE010E9494
:102C9000951540E06BE4CE010E949515E881F9811D
:102CA000448169E2CE010E94951541E06BE4CE01BA
:102CB0000E949515E881F981458169E2CE010E9463
:102CC000951566E171E007C0411103C06FE071E046
:102CD00002C064E071E0CE010E94BA1535C0F9016E
:102CE0000481000F000F000F13811695003210F0C1
:102CF0000052185FCE010E94A715F701A080B18095
:102D00006EE3CE010E9408166EE3CE010E94081603
:102D1000D12C10686D2D600F6068CE010E940816DE
:102D2000612FCE010E940816F701C280A5016C2D0B
:102D3000CE010E94B115AC0CB11CD394F8E0DF12A7
:102D4000E9CFCE010E949D1581E001C080E0DF91B6
:102D5000CF911F910F91FF90EF90DF90CF90BF9098
:102D6000AF9008959A01DC011896ED91FC911997A6
:102D7000462F67E10994CF93DF931F92CDB7DEB75B
:102D80006983AE014F5F5F4F61E00E94B2160F9002
:102D9000DF91CF910895CF92DF92EF92FF920F9340
:102DA0001F93CF93DF93EC01142F7901663131F13A
:102DB000F8F4643109F47BC0653109F086C068EF2E
:102DC0000E94BB1641E06CE2CE010E949515612F76
:102DD000607FCE010E94BB1641E06CE2CE010E94F2
:102DE0009515612F6295607FCE010E94BB1658C079
:102DF000673199F06A3108F068C059C068EF0E94E5
:102E0000BB16612F607FCE010E94BB16612F6295B9
:102E1000607FCE010E94BB1648C06AEF0E94BB16BD
:102E200041E06CE2CE010E9495156701012F083048
:102E300058F4812F8695869586951770E8E08E9FC9
:102E4000E00CF11C11241AC0E9EAF1E0D6018D91E1
:102E5000982F907F90838295807F8183329681E046
:102E6000E93BF807A1F798E0C90ED11C085049EAE0
:102E700051E060E1CE010E94B216D9CF112381F05A
:102E8000F70101917F01602F607FCE010E94BB1688
:102E9000602F6295607FCE010E94BB161150EECF6D
:102EA00041E06CE2CE010E94951581E00FC0E885FB
:102EB000F9859701412FCE01DF91CF911F910F919D
:102EC000FF90EF90DF90CF90099480E0DF91CF9159
:102ED0001F910F91FF90EF90DF90CF9008956623A0
:102EE00029F06A3019F0862F90E008958FEF9FEF58
:102EF00008950F93DC01FC01EE5BFF4F9081941B62
:102F0000492F31979081961B692F011103C04150C1
:102F1000621B04C0013011F46150421BDE968C919B
:102F2000DE97481BD496ED91FC91D597CD0109957C
:102F30000F910895CF93DF93FC01A081B18192ADF1
:102F4000892F880F880F880F85AF50968C915097E6
:102F5000803208F08FE1880F880F880F84AF23AD8F
:102F6000822F880F880F880F86AF51963C9151971A
:102F7000422F50E0490F511D632F70E06417750711
:102F800014F4932F921B87AFEF01C05CDF4F28E052
:102F9000929F800D11248883219680EF8883549618
:102FA0008D919C915597813F910508F48883EE5B44
:102FB000FF4F56968C918083DF91CF9108950F93A8
:102FC000CF93DF93DC01ED91FC915089362F377060
:102FD000E0E8F0E002C0F595E7953A95E2F73E2F7C
:102FE000A52FB0E0FC01C0ADD1AD669566956695A4
:102FF000E62FF0E0459FE00DF11D1124EC0FFD1FC1
:10300000EC01C758DF4F01111DC08881823018F4D0
:103010009081932B90838881813019F09081932740
:103020009083369511F4319630E8215071F711C034
:103030008881813019F0908193279083EA0FFB1FDC
:10304000215039F08881823098F79081932B9083BA
:10305000EFCFDF91CF910F9108958B589F4FFC01D7
:1030600080818F5F089580E00895213039F020F04D
:10307000223031F4861B0895860F0895841B08952D
:10308000840F0895213039F020F0223031F4841B70
:103090000895840F0895860F0895861B0895DC0116
:1030A00018964C911897ED91FC911197249130E06E
:1030B000042E02C0359527950A94E2F7842F860FD7
:1030C000883010F4E22F0DC031961196FC93EE93E8
:1030D000E49198E0941B01C0EE0F9A95EAF7E22B79
:1030E000885018968C9381E090E001C0880F6A9513
:1030F000EAF781508E2308951F93CF93DF93EC015D
:10310000A881B981683109F493C030F4643109F4BD
:1031100084C0673149F0E1C0693109F4CDC0603243
:1031200009F0DBC06AE4D4C01C968C9180FD5EC0BF
:10313000442309F4D0C0F90181919F014150DFB7C8
:10314000F894A091A701B091A8019091A601E091F7
:10315000A401F091A501C091A3017091A201811178
:103160000EC08C9198239C9388E090819C2B908337
:103170009081972390838150C1F7DFBFD9CF109101
:10318000A10158E06C9187FF02C0612B01C0692347
:103190006C9360816C2B6083880F608167236083F0
:1031A000515081F7EACFF90181919F014150DFB77A
:1031B000F894A091A701B091A8019091A601E09187
:1031C000A401F091A5017091A301C091A201811108
:1031D00010C08C9198239C9388E090819C239083CD
:1031E0009081972B90838150C1F7DFBF4111DBCFD6
:1031F00072C01091A10158E06C9187FF02C0612B51
:1032000001C069236C9360816C236083880F6081A7
:10321000672B6083515081F7E8CF11964C9169E498
:103220000E949515E881F9814485417060E450C0A1
:103230004C9169E40E949515A881B981EA85FB85C6
:1032400020E030E012964C916CE2CE0109958E8D13
:1032500090E0FC01EA5FF54DE491F0E0EE0FFF1F16
:10326000E450F64D259134913093A5012093A401AB
:10327000FC01E65EF54DE491E093A301E095E09357
:10328000A2018F8D90E0FC01EA5FF54DE491F0E042
:10329000EE0FFF1FE450F64D259134913093A801B5
:1032A0002093A701FC01E65EF54DE491E093A101B6
:1032B000E095E093A6010FC0EA85FB8520E030E0B1
:1032C00013964C916CE20995E881F981418169E49A
:1032D000CE010E94951581E001C080E0DF91CF9181
:1032E0001F910895F89489B18C708093A00180910A
:1032F000A0018C3021F480919F01811109C080913F
:10330000A001883019F481E080939E01789408959B
:103310008091B9019091BA0101969093BA0180937E
:10332000B90110929F0110929E01F0CFF89489B1DB
:103330008C708093A0018091A0018C3021F4809149
:103340009E01811109C08091A001843019F481E0AF
:1033500080939F01789408958091B9019091BA016A
:1033600001979093BA018093B90110929F01109236
:103370009E01F0CFCF92DF92EF92FF920F931F93B7
:10338000CF93DF936C01EB017B01E40EF51E00E0AF
:1033900010E0CE15DF0561F06991D601ED91FC9149
:1033A0000190F081E02DC6010995080F191FF1CF9A
:1033B000C801DF91CF911F910F91FF90EF90DF90A7
:1033C000CF900895089580E090E008958F929F92A5
:1033D000AF92BF92CF92DF92EF92FF921F93CF9363
:1033E000DF93EC016C3288F46A3208F0A4C06832D2
:1033F000B9F0693209F06DC0C42ED12CE12CF12C4A
:103400000E9441214B015C013DC06D3209F440C076
:1034100008F45FC084EB860F823008F448C059C0BE
:103420007C012EE1E20EF11CD0E0F70181917F01D9
:103430008F3F39F0D03110F461E001C062E00E94AA
:103440000521DF5FD63189F776C00E944121DC017A
:10345000CB0188199909AA09BB09883E9340A105A7
:10346000B10580F0F1E0CF1AD108E108F10828EEAB
:10347000820E23E0921EA11CB11CC114D104E104F0
:10348000F10419F7C114D104E104F104F1F653C0B9
:10349000433018F082E090E002C085E090E0880FB1
:1034A000991F880F991F05970197F1F744C0862F40
:1034B0008F73C80FD11D411107C061E08E8D0E942E
:1034C000052160E08E8D13C062E08E8D0E94052183
:1034D00032C0603408F431C0962F9F73FE01E90FAB
:1034E000F11D868D8F3F39F1903120F4642F0E94B9
:1034F000D62021C0282F30E0F901E25DF54D8491FE
:10350000F901E65EF54DF490F901EA5FF54D14918D
:10351000112379F081110E94AD20E12FF0E0EE0F30
:10352000FF1FE859FF4FA591B491EC91EF2181E085
:1035300009F480E0898F81E001C080E0DF91CF91C4
:103540001F91FF90EF90DF90CF90BF90AF909F9032
:103550008F900895FC01848DDF01A80FB11DA35A3F
:10356000BF4F2C91848D90E001968F739927848FA3
:10357000A689B7892C93A089B1898C9183708064C6
:103580008C93938D848D981306C00288F389E02D67
:1035900080818F7D80830895CF93DF93EC01888DA8
:1035A0008823C9F0EA89FB89808185FD05C0A88947
:1035B000B9898C9186FD0FC00FB607FCF5CF8081CD
:1035C00085FFF2CFA889B9898C9185FFEDCFCE0117
:1035D0000E94AA1AE7CFDF91CF9108950F93FC01C3
:1035E000EB5BFF4F308131965081451728F430173F
:1035F00030F0041720F010C03017D8F30DC0FC01D4
:10360000ED5BFF4F308131968081681738F43217B7
:1036100040F081E0261730F080E004C03217C8F394
:10362000FBCF81E00F9108953F924F925F926F928E
:103630007F928F929F92AF92BF92CF92DF92EF9242
:10364000FF920F931F93CF93DF93EC014C0183E420
:10365000880E911CF4011082329730805E01F4E4F0
:10366000AF0EB11CF50130827E01F5E4EF0EF11CC6
:10367000F70110823397108132978081181728F054
:10368000F12FF81B8F2FF70180838FAD181B6E0170
:10369000F6E4CF0ED11CF601108334967080329779
:1036A00050803196608032974080072D252D462D21
:1036B000642DCE010E94EE1ACD58DF4F811102C059
:1036C000188213C081E08883442011F0F401408205
:1036D000531410F4F5015082F7018081861508F427
:1036E0006082711610F4F6017082DF91CF911F9104
:1036F0000F91FF90EF90DF90CF90BF90AF909F9091
:103700008F907F906F905F904F903F9008950F93B0
:10371000DC01802FFD01ED58FF4F9081992309F4C2
:1037200063C0222309F460C0223048F0023019F44B
:103730006F5F621B04C0033011F44F5F421B082F00
:103740000170FD0180FD25C0EB5BFF4F80814817B4
:1037500008F44AC031968081481708F045C0329776
:10376000908131978081260F261730F4691718F45D
:103770002FEF290F03C0682F6917B0F58217A0F546
:10378000681708F4682F291708F4922F292F261B91
:1037900022C0ED5BFF4F8081681730F13196808148
:1037A000681710F53296908131978081240F241785
:1037B00030F4491718F42FEF290F03C0482F491789
:1037C00098F4821788F4481708F4482F291708F44A
:1037D000922F292F241BD696ED91FC91D797048028
:1037E000F581E02DCD0109950F9108955F926F92BB
:1037F0007F928F929F92AF92BF92CF92DF92EF9281
:10380000FF920F931F93CF93DF935C01F62E642EEC
:10381000EC01C15BDF4F1C81DD804C0189E7880E24
:10382000911CEE80E11ACF2CEF1408F4CE2C5B80B3
:103830000C85202F4D2D612F8A810E943518782EFE
:10384000202F4D2D612F852D0E944218482F662074
:1038500011F08A8504C08985811108C08B85F40127
:1038600080832C2D672DC5010E94871BFE1420F03C
:10387000FE18D39410E0D5CF1F0D1C83DD82DF919D
:10388000CF911F910F91FF90EF90DF90CF90BF905D
:10389000AF909F908F907F906F905F900895FC0104
:1038A000E60FF11D849190E0982F88273196E491DE
:1038B0008E0F911D08956F927F928F929F92AF927B
:1038C000BF92CF92DF92EF92FF920F931F93CF930D
:1038D000DF93EC01062F142F7901FC01E55AFF4F0D
:1038E00080818130C9F070F0823001F1833039F588
:1038F000FE01E35BFF4F0190F081E02DCE010995C1
:10390000080F1DC0FE01E35BFF4F0190F081E02D29
:10391000CE010995180F13C0FE01E35BFF4F019024
:10392000F081E02DCE010995081B09C0FE01E35B83
:10393000FF4F0190F081E02DCE010995181BFE018B
:10394000EF5AFF4F00833196108337978081918122
:1039500047962FEFE216F10409F040F5E1E6EE1686
:10396000F10420F0FE01E159FF4F07C0F1E4EF162A
:10397000F10438F0FE01E359FF4F20813181820FBD
:10398000931F9C012F5F3F4FF9014491442309F499
:103990000EC1FC01449150E0E416F50611F40296C4
:1039A00034C0F9012491820F911DEBCFFE01EF5835
:1039B000FF4FC080D180C80ED91E860160E0C601CD
:1039C0000E944F1C080F191F62E0C6010E944F1C85
:1039D000F4E0CF0ED11C8E159F0580F3F801849181
:1039E00090E0982F88273196E4918E2B009709F468
:1039F000DEC0E816F90619F4C801039606C0F801FE
:103A00003296E4910E0F111DE9CF009709F4CFC053
:103A10007E01FFE4EF0EF11CF70191838083108695
:103A200071966081C7010E944F18F70186837296D4
:103A30006081C7010E944F18D82EF70187835E016D
:103A4000F9E7AF0EB11CF5019081F701928781E093
:103A5000911180E0F7018387FE01EE59FF4F10813D
:103A6000612FC7010E944F189FEF910F01E010E0F6
:103A7000980101C0220F9A95EAF7782E721AFE017A
:103A8000ED59FF4FC0806C2DC7010E944F18CA949A
:103A9000480101C0880CCA94EAF7682E6D0CFE013B
:103AA000EC59FF4FC0806C2DC7010E944F18CA947B
:103AB00001C0000FCA94EAF7C82EC01AF7010681A8
:103AC00010160CF075C094848618292D482D672D8A
:103AD00082810E943518182FF7018283292D482DE5
:103AE000672D83810E944218F7018383F1E09F16BE
:103AF000B1F09F1678F022E09216B9F093E0991297
:103B00001FC0212F2D0D982F901B01E0080F81E081
:103B1000890F18C0202F210F082F0D0D13C09D18DD
:103B200021E0210F080F190D0DC091E0392F301B36
:103B300021E0210F9D1901E0080F890F130F02C02A
:103B4000082F212F482F612FCE010E94EE1A8823C3
:103B500079F1F701148215828E01025A1F4F4E012E
:103B6000FFE58F0E911CF8016081C7010E944F187C
:103B7000682EF4016081C7010E944F18782E40E042
:103B8000662DCE010E94F61B41E0672DCE010E94FA
:103B9000F61B61E0C7010E944F188111F0CFF701B9
:103BA00085818D1504F38285F501808301C0C12CC8
:103BB0008C2DDF91CF911F910F91FF90EF90DF90AF
:103BC000CF90BF90AF909F908F907F906F9008950F
:103BD000CF92DF92EF92FF920F931F93CF93DF93D9
:103BE000EC016C0124E0C20ED11CFC01E158FF4F36
:103BF0000190F081E02DC60109958E3FEFEF9E0701
:103C000030F58E010E571F4F7E01F1E8EF0EF11CCB
:103C10009C01F8014081F7016081C6010E945B1C94
:103C2000C15ADF4F9881913049F030F0923051F015
:103C3000933069F4F80107C0F70101C0F8019081E1
:103C4000890F04C0F7019081981B892F808381E040
:103C500090E0DF91CF911F910F91FF90EF90DF9057
:103C6000CF90089585ED8093BC008091BC0084FDC9
:103C7000FCCF10920F0208954091EB01262F30E007
:103C8000240F311D21323105DCF420910F02243044
:103C9000C9F4FC0180E090E0861758F43091EB0104
:103CA0002191DC01A553BE4FA30FB11D2C930196AA
:103CB000F3CF8091EB01680F6093EB0180E00895F2
:103CC00081E0089582E0089508958FEF9FEF0895B1
:103CD0008FEF9FEF08958091CA0190E091958195B3
:103CE00091090895CF93DF93CB01EA01642F0E94DD
:103CF0003C1ECE01DF91CF910895CF93DF931F92A9
:103D0000CDB7DEB7698361E0CE0101960E943C1E0B
:103D100081E090E00F90DF91CF9108950895CF92C8
:103D2000DF92EF92FF920F931F93CF93DF936C017B
:103D30007A018B01C0E0D0E0CE15DF0581F0D8011B
:103D40006D918D01D601ED91FC910190F081E02DF6
:103D5000C6010995892B11F02196EECF7E01C7018E
:103D6000DF91CF911F910F91FF90EF90DF90CF9057
:103D70000895CF92DF92EF92FF920F931F93CF930C
:103D8000DF93C82F062FD42F481718F4182F141BB1
:103D900002C0142F181B201758F4F02EF21A1F150A
:103DA000C0F4802F0D2FD82F8C2FC22F282F0AC0A0
:103DB000F22EF01A1F1588F58D2FD22F282F8C2F59
:103DC000C02F082FDD24D394EF2CE694021768F05F
:103DD00030C0DC1788F5E12EE694812F1F2DF82ED8
:103DE0008D2FDC2FC82F022FD12CCC24C394DF3F82
:103DF00071F4DEEF0CC0D1100DC0602F8C2F0E942B
:103E0000BD23E11AE7FE02C00C0DEF0CCF5FDC17FB
:103E100090F717C06C2F802FF2CFDC1768F4E12EDB
:103E2000E694812F1F2DF82E8D2FDC2FC82F022F07
:103E3000D12CCC24CA94DBCF8F2DF12E182FD12C6E
:103E4000C3CFDF91CF911F910F91FF90EF90DF9043
:103E5000CF9008950E94D02785E392E00E947D15BF
:103E600021E0892B09F420E0822F0895EF92FF9240
:103E70000F931F93CF93DF93EC0181E0888F9B8D8D
:103E80008C8D981305C0E889F989808185FD26C04D
:103E9000F62E0B8D10E00F5F1F4F0F731127E02ED2
:103EA0008C8DE8120CC00FB607FCFACFE889F989AF
:103EB000808185FFF5CFCE010E94AA1AF1CF8B8DAC
:103EC000FE01E80FF11DE35AFF4FF0829FB7F8940F
:103ED0000B8FEA89FB89808180620AC09FB7F894C2
:103EE000EE89FF896083E889F98980818370806425
:103EF00080839FBF81E090E0DF91CF911F910F9170
:103F0000FF90EF9008951F920F920FB60F92112419
:103F10002F933F934F935F936F937F938F939F93D1
:103F2000AF93BF93EF93FF938091B900887F803662
:103F300009F49CC068F5883209F45BC090F48031C4
:103F400009F454C038F4882309F4F2C0883009F425
:103F50004DC0F2C0883109F44CC0803209F45DC014
:103F6000EBC0803409F468C048F4803309F455C0CC
:103F7000883309F0E1C080930E02D4C0803509F483
:103F80004FC0883509F45DC0883409F0D5C0D2C06F
:103F9000883909F4C3C0A8F4883709F467C038F435
:103FA000883609F463C0803709F460C0C5C088381A
:103FB00009F4B4C0803909F45FC0803809F0BCC08E
:103FC0005BC0803B09F484C038F4803A09F466C0D1
:103FD000883A09F47DC0B0C0803C09F4A3C0883C95
:103FE00009F4A0C0883B09F486C0A6C080913402C1
:103FF00010C09091330280913202981770F5E091D1
:10400000330281E08E0F80933302F0E0EE5EFD4FCD
:1040100080818093BB0085EC82C080930E028AC0B1
:10402000E091330281E08E0F809333028091BB00D8
:10403000F0E0EE5EFD4F808390913302809132027A
:104040006AC0E091330281E08E0F80933302809149
:10405000BB00F0E0EE5EFD4F808380911102811184
:1040600069C081E08093100284EA5DC083E08093A0
:104070000F0210920D02CFCF80910D02803208F016
:104080004DC0E0910D0281E08E0F80930D02809172
:10409000BB00F0E0E351FE4F8083BDCF85EC809301
:1040A000BC0010920F0280910D02803230F4E0913A
:1040B0000D02F0E0E351FE4F108260910D0270E0BE
:1040C0008DEE91E0E0E0F0E0099510920D0234C031
:1040D00084E080930F021092EC011092EB01E0E07B
:1040E000F0E009958091EB01811105C081E080939A
:1040F000EB011092CB01E091EC0181E08E0F8093F7
:10410000EC01F0E0E553FE4F80818093BB0090917D
:10411000EC018091EB01981708F47DCF85E880933E
:10412000BC000AC085EC8093BC0010920F0204C052
:1041300010920E020E94321EFF91EF91BF91AF913B
:104140009F918F917F916F915F914F913F912F91AF
:104150000F900FBE0F901F901895833081F028F4B8
:10416000813099F08230A1F008958730A9F088302D
:10417000B9F08430D1F4809180008F7D03C08091AC
:1041800080008F7780938000089584B58F7702C078
:1041900084B58F7D84BD08958091B0008F7703C072
:1041A0008091B0008F7D8093B00008951F93CF93CE
:1041B000DF93282F30E0F901E25DF54D8491F9019C
:1041C000E65EF54DD491F901EA5FF54DC491CC233B
:1041D000C1F0162F81110E94AD20EC2FF0E0EE0F00
:1041E000FF1FE450F64DA591B4919FB7F8941111BB
:1041F00004C08C91D095D82302C0EC91DE2BDC93C7
:104200009FBFDF91CF911F910895CF93DF9390E0EF
:10421000FC01E65EF54D2491FC01EA5FF54D8491C9
:10422000882361F190E0880F991FFC01EE50F64D54
:10423000C591D491FC01E450F64DA591B491611162
:1042400009C09FB7F8948881209582238883EC91D8
:104250002E230BC0623061F49FB7F8948881322F0F
:10426000309583238883EC912E2B2C939FBF06C01F
:104270008FB7F894E8812E2B28838FBFDF91CF91E1
:1042800008953FB7F8948091C6019091C701A0911D
:10429000C801B091C90126B5A89B05C02F3F19F0F0
:1042A0000196A11DB11D3FBFBA2FA92F982F8827B6
:1042B000820F911DA11DB11DBC01CD0142E0660F11
:1042C000771F881F991F4A95D1F708951F920F9263
:1042D0000FB60F9211242F933F938F939F93AF9319
:1042E000BF938091C2019091C301A091C401B0918C
:1042F000C5013091C10123E0230F2D3720F4019631
:10430000A11DB11D05C026E8230F0296A11DB11DF8
:104310002093C1018093C2019093C301A093C40173
:10432000B093C5018091C6019091C701A091C801C9
:10433000B091C9010196A11DB11D8093C601909352
:10434000C701A093C801B093C901BF91AF919F91DC
:104350008F913F912F910F900FBE0F901F90189546
:104360001F920F920FB60F9211242F933F934F93EA
:104370005F936F937F938F939F93AF93BF93EF93CD
:10438000FF93E0910201F09103010995FF91EF91F4
:10439000BF91AF919F918F917F916F915F914F915D
:1043A0003F912F910F900FBE0F901F9018951F9265
:1043B0000F920FB60F9211242F933F934F935F9359
:1043C0006F937F938F939F93AF93BF93EF93FF93DD
:1043D000E0910001F09101010995FF91EF91BF91EA
:1043E000AF919F918F917F916F915F914F913F918D
:1043F0002F910F900FBE0F901F9018951F920F9244
:104400000FB60F9211242F933F934F935F936F93A7
:104410007F938F939F93AF93BF93EF93FF9385E326
:1044200092E00E94AA1AFF91EF91BF91AF919F91E4
:104430008F917F916F915F914F913F912F910F904D
:104440000FBE0F901F9018951F920F920FB60F92EC
:1044500011242F938F939F93EF93FF93E091450245
:10446000F09146028081E0914B02F0914C0282FD76
:1044700012C0908180914E028F5F8F7320914F0206
:10448000821751F0E0914E02F0E0EB5CFD4F958F0A
:1044900080934E0201C08081FF91EF919F918F9197
:1044A0002F910F900FBE0F901F901895AF92BF9253
:1044B000CF92DF92EF92FF920F931F93CF93DF93F0
:1044C00000D000D01F92CDB7DEB78C01DC01DA96A8
:1044D000AC90DA97DB96EC90DB97ED91FC91B1888C
:1044E000FE2CC12CD12CD801ED91FC911197808923
:1044F000D8964D915C91D9971C82FD828B83B8E050
:104500008B9FC00111248C9D90018D9D300D9C9D31
:10451000300D1124CA01820F931F9A838983D80119
:104520001496ED91FC9115979E012F5F3F4F41E04E
:104530006FE0C8010995F3948F2D8E198A1528F420
:10454000BFEFCB1ADB0AFB1470F20F900F900F90A5
:104550000F900F90DF91CF911F910F91FF90EF90EF
:10456000DF90CF90BF90AF900895FC01A081B18102
:1045700050969C9142AD949FA001112483E0440F7A
:10458000551F8A95E1F760E070E080AD91AD0C9425
:10459000D527AF92BF92CF92DF92EF92FF920F9307
:1045A0001F93CF93DF93D82EE62EC42FFF24F394CE
:1045B000F60EDEE1AD2EA61AB42EB80E01E02F2DB8
:1045C0004A2D6B2D86ED92E00E94871B11E01D0D98
:1045D000DD19CE2CCC0E212F4D2F6C2D86ED92E0C7
:1045E0000E94871B8C2F8D19D82E2F2D4A2D682FB6
:1045F00086ED92E00E94871BCE19212F4D2F6C2F44
:1046000086ED92E00E94871B2F2D4EE16B2D86EDEB
:1046100092E00E94871B212F4EE16C2D86ED92E0E7
:104620000E94871B2F2D4EE16D2D86ED92E00E949A
:10463000871B212F4EE16C2F86ED92E00E94871B95
:10464000DF91CF911F910F91FF90EF90DF90CF906E
:10465000BF90AF900895CF93DF93EC016BAFEEA9BD
:10466000FFA90190F081E02D0995EEA9FFA9028034
:10467000F381E02DCE01DF91CF9109941F93CF9369
:10468000DF93EC010E9456221BAD8AAD180FE88122
:10469000F9818189181750F0EC81FD8120E030E02C
:1046A00040E060E1CE01099580E00EC0FE01E658D1
:1046B000FF4F8081882319F0CE010E94B522612F1F
:1046C000CE010E942B2381E0DF91CF911F910895AD
:1046D000CF93DF93EC01FC01E658FF4F80818823E4
:1046E00019F0CE010E94B52260E0CE01DF91CF919A
:1046F0000C942B23EF92FF921F93CF93DF93109292
:10470000EE027C0110E0D5E0CAE0F70161917F0183
:10471000E091D802F091D90286ED92E009958F3FA1
:10472000FFEF9F07E9F08E3F2FEF920771F39C0197
:104730004D2F6C2F86ED92E00E945B1C909131030F
:10474000913049F030F0923041F0933039F4D81B79
:1047500005C0C80F03C0D80F01C0C81B180FD5CFA4
:10476000812FDF91CF911F91FF90EF9008958330BB
:1047700008F081E080934F0308950F9390911B03FD
:104780006917A0F090911C03691780F490911903A8
:10479000891760F090911A03891740F4462F682F0B
:1047A00000E021E086ED92E00E94871B0F910895C2
:1047B000BF92CF92DF92EF92FF920F931F93CF930E
:1047C000DF93D82F162FC42F022FB22EB61AD42E55
:1047D000D80E6B2D8D2D0E94BD23C02ECD1AE12E3B
:1047E000EC0E6C2D8E2D0E94BD23FC2EFD1A6B2D20
:1047F0008F2D0E94BD23C11B6C2D8C2F0E94BD23C9
:10480000100F612F8D2D0E94BD23D00F6D2F8E2D87
:104810000E94BD23612F8F2D0E94BD236D2F8C2FF1
:10482000DF91CF911F910F91FF90EF90DF90CF908C
:10483000BF900C94BD23EF92FF920F931F93CF93E1
:10484000DF93F82EE62E05E0060F25E0280F4CEF4B
:10485000460F6CEF680F86ED92E00E94EE1A8823F7
:10486000E9F02E2D4F2D64E080E00E94D823C0E0B7
:1048700014E008EFDDEFCF5F8C2F880F8F5FD80F2C
:104880002E2D4F2D612F8C2F0E94D823C11730F46D
:10489000D7FDF1CF11500E5FD00FEDCFDF91CF914B
:1048A0001F910F91FF90EF900895FF920F931F9328
:1048B000CF93DF93F82E25E0280F6CEF680F03E20B
:1048C0004AE186ED92E00E94EE1A8823D9F04F2D3E
:1048D00064E080E00E94C922C0E014E008EFDDEF50
:1048E000CF5F8C2F880F8F5FD80F4F2D612F8C2FAC
:1048F0000E94C922C11730F4D7FDF2CF11500E5FCC
:10490000D00FEECFDF91CF911F910F91FF900895BF
:10491000CF93DF9300D01F92CDB7DEB7789484B5E4
:10492000826084BD84B5816084BD85B5826085BDAB
:1049300085B5816085BD80916E00816080936E0039
:10494000109281008091810082608093810080912B
:1049500081008160809381008091800081608093DC
:1049600080008091B10084608093B1008091B0009C
:1049700081608093B00080917A00846080937A0097
:1049800080917A00826080937A0080917A008160C1
:1049900080937A0080917A00806880937A001092E8
:1049A000C100E091DA02F091DB0220E030E040E06B
:1049B0006AE086ED92E0099586ED92E00E94682318
:1049C00086ED92E00E943E238111FACF60E086EDF1
:1049D00092E00E942B23E091DA02F091DB0220E0CA
:1049E00030E040E06BE086ED92E0099562E082E025
:1049F0000E94052162E083E00E94052162E084E0DC
:104A00000E94052186E999E19093010180930001BC
:104A100080916900836080936900E89A82E799E158
:104A20009093030180930201809169008C608093D0
:104A30006900E99AE0914502F091460282E08083A4
:104A4000E0914102F09142021082E0914302F09124
:104A5000440280E1808310924D02E0914902F0917E
:104A60004A0286E08083E0914702F091480280810B
:104A700080618083E0914702F091480280818860E4
:104A80008083E0914702F0914802808180688083B2
:104A9000E0914702F091480280818F7D808362E738
:104AA000262E60E0362E810186ED92E00E9468237A
:104AB00087E7482E80E0582E98E7692E90E0792EFF
:104AC00029E7E22E20E0F22E3AE7C32E30E0D32E83
:104AD0004BE7A42E40E0B42E5CE7852E50E0952EE7
:104AE00080912103909122038257904009F4A7C03E
:104AF0001093220300932103F101849180933203E8
:104B0000E3E7F0E0849180933303E4E7F0E08491FD
:104B100080933403E5E7F0E0849180933503E6E782
:104B2000F0E0849180933603F201849180933703FF
:104B3000F301849180933803F701849180933903C2
:104B4000F601849180933A03F501849180933B03AD
:104B5000F401849180933C03EDE7F0E0E491E0936D
:104B60003D03EEE7F0E0E491E0933E03EFE7F0E091
:104B7000E491E0933F03E0E8F0E0E491E093400348
:104B8000E1E8F0E0E491E0934103E2E8F0E0E49151
:104B9000E093420361E182E790E00E944F1C909312
:104BA00044038093430363E182E790E00E944F1C3B
:104BB000909346038093450365E182E790E00E946D
:104BC0004F1C909348038093470380912103909159
:104BD0002203892BA1F180913F0380934B034091E5
:104BE000400340934C0390914A03992341F1913043
:104BF00069F490914103891714F490934B038091C9
:104C000042038417E4F480934C0319C030913C03B1
:104C100020913E03082E000C990B622F022E000CEF
:104C2000770B630F711D37FD7A95861797071CF474
:104C3000320F30934B03241714F420934C03F1E00C
:104C4000F0934A038091210390912203892BA1F0D4
:104C500020913F0320934B039091400390934C038A
:104C600080914103281714F480934B0380914203F1
:104C7000891714F480934C0381E00E94B7238DE2DE
:104C800098E190932403809323031092310324E14D
:104C900043E56AE084E60E94B91E28E243E564E148
:104CA00083E50E94B91E22E344E668E283E50E94A0
:104CB000B91E28E245E762E384E60E94B91E24E1BA
:104CC00045E768E285E70E94B91E2AE044E664E110
:104CD00085E70E94B91E6BE089E50E941B246BE00A
:104CE0008FE60E941B2461E389E50E941B2461E397
:104CF0008EE60E941B246EE18EE40E941B246EE16E
:104D00008AE70E941B248AE70E94552480E00E94C3
:104D1000B7238AE70E94552481E00E94B7236EE101
:104D20008AE70E941B248091B9019091BA01E1E4C5
:104D3000F1E0ABEBB1E0219190E3821718F0821B18
:104D40009F5FFBCF9D9321E0E434F207A1F710921F
:104D5000BE016CEB71E0CE0101960E94DC278FE66C
:104D600097E19093D9028093D802CE0101960E94D8
:104D70007A232091BF013091C0018091B9019091B7
:104D8000BA012817390741F08091B9019091BA0111
:104D90009093C0018093BF0186ED92E00E943E2374
:104DA00081119ECE0E9489157FCECF931092580319
:104DB0001092570388EE93E0A0E0B0E0809359038F
:104DC00090935A03A0935B03B0935C0328E431E013
:104DD00030935603209355031092380210923702F5
:104DE0008093390290933A02A0933B02B0933C0225
:104DF0008AE591E0909336028093350285EC90E04D
:104E0000909342028093410284EC90E0909344029C
:104E10008093430280EC90E0909346028093450299
:104E200081EC90E0909348028093470282EC90E0FE
:104E300090934A028093490286EC90E090934C0252
:104E400080934B0210924E0210924F021092500229
:104E5000109251021092D5021092D4028FE697E17F
:104E60009093520380935103109253031092540372
:104E70001092EE028CE691E09093D3028093D202DE
:104E80001092D7021092D6021092EB021092E20218
:104E90001092E3021092E4021092E5028FEF8093E9
:104EA000EC028093F002E4EFF2E0CFEF819393E025
:104EB000EA30F907D1F782E196E19093DB02809323
:104EC000DA028BEC96E19093DD028093DC028CE7B2
:104ED00098E19093DF028093DE0286EE99E1909351
:104EE000E1028093E00220E030E040E069E086EDFE
:104EF00092E00E94121610922203109221038FED6D
:104F000097E190930B0380930A0381E693E09093DB
:104F10000F0380930E0381E080931003109211031E
:104F200010922E0310924E0380934F0380935003F0
:104F300084E791E090930D0380930C0386ED92E05B
:104F40000E949A1710921D0310921F03C0931E0314
:104F5000C0932003E0910C03F0910D030280F381D4
:104F6000E02D86ED92E0099583E398E19093240388
:104F700080932303109231038DE08093F4028BE041
:104F80008093F5028AE08093FD0288E08093FF021F
:104F9000CF910895EE0FFF1F0590F491E02D099435
:104FA00081E090E0F8940C94E327DC0101C06D935C
:104FB00041505040E0F70895FB01DC0101900D9253
:0A4FC0000020E1F70895F894FFCFF8
:104FCA008E1E8E1E18153815081534150119FF186E
:104FDA001538150C19FFFE6418FE0A153815081540
:104FEA000615021501FE0419FF0100050501061444
:104FFA008C40420F0003041E281008000080004065
:10500A0000640A01000000007D1E721EE319641E7E
:10501A006B1E681E651E00000000361F8F1E4C1591
:10502A00CC1A7D155B156F1500000000E81DBA1932
:0A503A00E319E2199A17141B791705
:00000001FF
