:100000000C94E1040C9409050C9409050C94090561
:100010000C9409050C9409050C9409050C94090528
:100020000C9409050C9409050C9409050C94090518
:100030000C9409050C9409050C9409050C94090508
:100040000C940D0D0C9409050C9409050C940905EC
:100050000C9409050C9409050C9409050C940905E8
:100060000C9466100C940905000000002300260083
:100070002900BF0003020304030504070D00FE0965
:10008000FE0BFF016602D608E0200500EE072107FF
:10009000D1C3C7211122079CDE47640A2310C5C2C1
:1000A0004F294906A5942483524A1200240FD5BE35
:1000B00057B654944CD412A5B245002510CDC24F6A
:1000C000A424A624AB448A9248090026104EC257A5
:1000D000986449186A5122255AB404270723DB8FF4
:1000E000A504280B63BF571225516F5116290C63C5
:1000F000BF471665512F5112012A0BADCA4F2D1A59
:10010000A42C49002B0AADCA57180D5218012C0710
:1001100023BB8FA5042D068DD2C7202E0612C3C780
:10012000102F0DE5BE672DAC8559580B4300300BE1
:10013000CDC25796D4BC25B5083108CBC257B244BE
:100140007D320BCDC2CF926961D67110330DCDC215
:10015000CF928559A6865AB200340ECDC25F664A48
:10016000A2A4940C5A9800350DCDC2C7311C922C14
:100170000CB56401360DCDC2979485E19064B664E8
:1001800001370CCDC2C72DCCC22CCCC20C380DCD42
:10019000C2CF92D99225B3250B00390DCDC2CF9293
:1001A000D99221AC4512003A0832C3C7100E013B68
:1001B0000A43BB8F1D509412003C08CDC267D6B5D0
:1001C000033D09A5CAC7A06383003E09CDC247DA33
:1001D000AD23003F0DD5C2CF92696156CCA130024C
:1001E000400FCDC29714494BA2244A2229E900416D
:1001F0000C4EC297688B9A86243406420DCDC2C736
:100200009064B641C96C8302430BCDC29714895DDB
:10021000A34801440BCDC2C754C97C4A2600450BF4
:10022000CDC2C7B13824617110460BCDC2C7B138F9
:1002300024612300470DCDC2CF92899521B3254378
:1002400000480BCDC247E6360C995B00490ACDC287
:10025000C720857D1A044A0DCEC2D710A65DB224F0
:100260008B26004B0DCDC247664A4A53254A322D94
:100270004C09CDC247D88F83004D0C4EC247284E43
:1002800043B47834064E0DCDC247A64D4AA224D2BF
:10029000660B4F0ACDC2CF92F92D5900500CCDC23A
:1002A000C79064B641091B015111D6BECF942559A0
:1002B000922559922559D2340B520DCDC2C7906464
:1002C000B6412955322D530CCDC2CF9289E91A6A15
:1002D000C9025409CDC2C72085FD045509CDC247C6
:1002E000E66FC902560CCDC247E62D2925591801E3
:1002F00057114FC2476A8AA448AA34295216650981
:1003000000580ECDC247A625A524AB44494D0B5934
:100310000CCDC247664B4A491636015A0CCDC2C7AE
:1003200020666156CCC2415B0A64BFC7A0F56F432B
:10033000005C0DE5BE479886D5300DAB61005D0AC7
:10034000E4BEC790F56F83005E091EDA971625613B
:10035000005F068DC2C720600823DB87226501612C
:100360000CBDC2CF1A2683A6254300620CD5C24716
:10037000D862D26C93A200630ABDC2CF92896DC9C4
:1003800002640BD5C2678B6973529400650CBDC2C1
:10039000CF9269C310A60B00660BD5C29F149606B8
:1003A00029EC04670DCDBACFA039294AA8250B0046
:1003B000680AD5C247D862D2BC05690BD5C2579826
:1003C00023624F83006A0BE4BA5F75EB4D4A140059
:1003D0006B0ED5C247D82625252D892A59006C09D0
:1003E000D5C28FD89F06016D0F3FC2C7A24491149A
:1003F0004991144991546E09BDC24762D2BC056F40
:100400000ABDC2CF92794B1600700DCDBA4762D2A9
:100410006C93A2842100710BCDBA8F69735294B092
:10042000007209BDC28762297603730BBDC2CF92E9
:10043000A9AB962C00740CCDC24F980D51D82952FF
:10044000007509BDC247E693A204760CBDC247669B
:100450004B4A49164600770F3FC2472A455224555A
:100460004C59942500780BBDC247A625B54A4D0BC3
:10047000790DCDBA47664B4A49A68591067A0ABDE1
:10048000C2C720661D07017B0BE5BE9F1436696A53
:10049000D82A7C06E1BFC7077D0CE5BE871AB66A7D
:1004A00052D8A4017E091EDE8FA4981400A0089DD6
:1004B000C247A60D03A108D1BB87320C01A20FCD04
:1004C000BE67B24453524A2229594200A30E4EC27B
:1004D0009F1655C3214BC36C1802A40C36C647980F
:1004E0000C51A7210903A50ECDC247664B2A8314E0
:1004F0000D521801A608E1BFC7200D02A70FDCBAF4
:100500008F128951524A4AA1942800A80794E247C1
:100510002405A91357BED7568914255332255332C3
:1005200049A9651300AA0BBCCE8F980C51320E015D
:10053000AB09A5CA4F24255103AC079DCAC7201695
:10054000AD060BD3C700AE1257BED7564924A5A29D
:10055000544C4A45E9964D00AF068DE6C720B009D8
:10056000A4DA8F12498902B10CBDC257180D5298F6
:10057000038300B20ABCD28F126551DB10B30CBCEE
:10058000D28F12655128250A00B40723DB57A50432
:10059000B50BCDBA47E66D59123104B612CDC2CFB4
:1005A000A0244AA2549428899228899200B706125E
:1005B000CFC710B809A4BA57160E0900B908BBD2A4
:1005C00057B2441DBA0ABCCE8F1299127508BB0AE5
:1005D000A5CA47D412490900BC1366BE4FA8D692DB
:1005E000A8122651A2B425D9102600BD1066BE4F10
:1005F000A8D692A8124EC64C4B8700BE1366BE8F7B
:1006000016857122496312254A5B920D6102BF0D66
:10061000D5BA5798436156CCB46401C00E5EC24F40
:10062000AC63A216350D49680CC10E5EC267A663A5
:10063000A216350D49680CC20F5EC29716E590A848
:10064000454D43121A03C30F5EC25725D121518B6A
:100650009A86243406C40E5EC24FD40E895AD4340E
:1006600024A131C50E5EC29716B5895AD43424A18F
:1006700031C60C4EC2DF246A49969C7A1AC70DDD3A
:10068000BA9714895DA348CC2200C80DDDC24F2A59
:100690000F633824617110C90DDDC25FA403C770F8
:1006A00048C2E220CA0DDDC297541DC67048C2E29E
:1006B00020CB0FDDC24F9444E93086431216070168
:1006C000CC0BDDC24F2A0F52D8D320CD0CDDC25F38
:1006D000A4038314F63408CE0BDDC297541DA4B0D6
:1006E000A741CF0DDDC24F9444E920853D0D02D0D6
:1006F000114EC2CF16D5926C88922CC992289A00BE
:10070000D10FDDC24FA4C89936298992489B16D2D1
:100710000CDDC24FAA034BE65BB200D30CDDC25F17
:10072000A4234BE65BB200D40BDDC297545E32DFEC
:100730009205D50DDDC24FA4E8C092F9962C00D6E3
:100740000DDDC24F9444F192F9962C00D70AADCA40
:100750004796D42AB500D8124FC2D7528B2229927D
:1007600092921449B5249900D90BDDC24F2A677EB5
:100770004B1600DA0BDDC25FA40399DF9205DB0B99
:10078000DDC29754CDFC962C00DC0CDDC24F9444A6
:1007900069E6B76401DD0EDDC25FA4039996949209
:1007A0002C6C02DE0DCDC247180E49661B94300436
:1007B000DF0ED5C28F54899252A2645E1400E00FFE
:1007C000DDC25798E6C01A2683A6254300E10FDD57
:1007D000C25F98E5C81A2683A6254300E20DD5C25C
:1007E00097545EC364D0B46408E30FD5C24FA4E845
:1007F000C01A2683A6254300E40FD5C24F9444F1C6
:100800001A2683A6254300E50FDDC257966439B248
:1008100086C9A069C910E60F3FC28F31CAA2641809
:10082000A22C0A9501E70BCDBACF92896DC9560368
:10083000E80FDDC24F98E6C89269C310A60B00E925
:100840000FDDC25F98E5C89269C310A60B00EA0DE0
:10085000D5C297545E326D18C27401EB0FD5C24FEA
:100860009444F19269C310A60B00EC0BDDC24F98C3
:10087000E688D8D320ED0BDDC25F98E588D8D32079
:10088000EE0BD5C28F5407C49E0601EF0CD5C247AC
:1008900094443920F63408F00ED5C247144949284B
:1008A0002535B76401F10BD5C24FA4C88949F316A9
:1008B000F20DDDC24F98E6C892794B1600F30DDDBC
:1008C000C25F98E5C892794B1600F40BD5C29754D5
:1008D0005E326FC902F50DD5C24FA4E8C092794BC4
:1008E0001600F60DD5C24F9444F192794B1600F7DD
:1008F0000C3EC697A823C38E881200F80F3FC2D7BC
:10090000528B22292949B5249900F90CDDC24F9850
:10091000E640E693A204FA0CDDC25F98E540E69358
:10092000A204FB0BD5C29754CD7C529400FC0CD58D
:10093000C24F944469E693A204FD10EDBA5F98E5B6
:1009400040664B4A49A6859106FE0EE5BA47D86235
:10095000D26C93A2842100FF10E5BA4F94446966DB
:100960004B4A49A685910600000004FFFF000000E5
:10097000000000240027002A0000000000250028B5
:10098000002B000404040404040404020202020212
:100990000203030303030301020408102040800143
:1009A00002040810200102040810200000000800C2
:1009B0000201000003040700000000000000000026
:1009C0002A1311241FBECFEFD8E0DEBFCDBF11E048
:1009D000A0E0B1E0EEEEF7E202C005900D92AA367B
:1009E000B107D9F723E0AAE6B1E001C01D92A93210
:1009F000B207E1F714E0C1EED4E004C02197FE0194
:100A00000E94E313C03ED107C9F70E9490110C94D5
:100A1000F5130C940000662329F06A3019F0862F34
:100A200090E008958FEF9FEF08950F93DC01FC0194
:100A3000EE5BFF4F9081941B492F31979081961B5D
:100A4000692F011103C04150621B04C0013011F431
:100A50006150421BDE968C91DE97481BD496ED9137
:100A6000FC91D597CD0109950F910895CF93DF9310
:100A7000FC01A081B18192AD892F880F880F880F6A
:100A800085AF50968C915097803208F08FE1880F97
:100A9000880F880F84AF23AD822F880F880F880FAF
:100AA00086AF51963C915197422F50E0490F511D0E
:100AB000632F70E06417750714F4932F921B87AFB0
:100AC000EF01C05CDF4F28E0929F800D11248883E6
:100AD000219680EF888354968D919C915597813F04
:100AE000910508F48883EE5BFF4F56968C918083C6
:100AF000DF91CF9108950F93CF93DF93DC01ED91B8
:100B0000FC915089362F3770E0E8F0E002C0F5958F
:100B1000E7953A95E2F73E2FA52FB0E0FC01C0AD76
:100B2000D1AD669566956695E62FF0E0459FE00DA0
:100B3000F11D1124EC0FFD1FEC01C758DF4F01110F
:100B40001DC08881823018F49081932B9083888116
:100B5000813019F0908193279083369511F4319666
:100B600030E8215071F711C08881813019F09081EF
:100B700093279083EA0FFB1F215039F08881823040
:100B800098F79081932B9083EFCFDF91CF910F91C6
:100B9000089580E00895213039F020F0223031F4BA
:100BA000861B0895860F0895841B0895840F089569
:100BB000213039F020F0223031F4841B0895840F65
:100BC0000895860F0895861B0895DC0118964C91B0
:100BD0001897ED91FC911197249130E0042E02C0FA
:100BE000359527950A94E2F7842F860F883010F404
:100BF000E22F0DC031961196FC93EE93E49198E0AC
:100C0000941B01C0EE0F9A95EAF7E22B88501896D4
:100C10008C9381E090E001C0880F6A95EAF78150DB
:100C20008E230895CF92DF92EF92FF920F931F933E
:100C3000CF93DF936C01EB017B01E40EF51E00E026
:100C400010E0CE15DF0561F06991D601ED91FC91C0
:100C50000190F081E02DC6010995080F191FF1CF11
:100C6000C801DF91CF911F910F91FF90EF90DF901E
:100C7000CF900895089580E090E008951F93CF935A
:100C8000DF93EC01A881B981683109F493C030F495
:100C9000643109F484C0673149F0E1C0693109F475
:100CA000CDC0603209F0DBC06AE4D4C01C968C91E0
:100CB00080FD5EC0442309F4D0C0F90181919F01F9
:100CC0004150DFB7F894A0919401B09195019091B3
:100CD0009301E0919101F0919201C0919001709186
:100CE0008F0181110EC08C9198239C9388E0908194
:100CF0009C2B90839081972390838150C1F7DFBF15
:100D0000D9CF10918E0158E06C9187FF02C0612B02
:100D100001C069236C9360816C2B6083880F6081B4
:100D200067236083515081F7EACFF90181919F01D8
:100D30004150DFB7F894A0919401B0919501909142
:100D40009301E0919101F091920170919001C09115
:100D50008F01811110C08C9198239C9388E0908121
:100D60009C2390839081972B90838150C1F7DFBFA4
:100D70004111DBCF72C010918E0158E06C9187FF5A
:100D800002C0612B01C069236C9360816C23608376
:100D9000880F6081672B6083515081F7E8CF1196EF
:100DA0004C9169E40E94570DE881F98144854170B6
:100DB00060E450C04C9169E40E94570DA881B9814C
:100DC000EA85FB8520E030E012964C916CE2CE0182
:100DD00009958E8D90E0FC01ED57F64FE491F0E01F
:100DE000EE0FFF1FE758F64F259134913093920193
:100DF00020939101FC01E956F64FE491E0939001B4
:100E0000E095E0938F018F8D90E0FC01ED57F64F58
:100E1000E491F0E0EE0FFF1FE758F64F2591349173
:100E20003093950120939401FC01E956F64FE4912B
:100E3000E0938E01E095E09393010FC0EA85FB8576
:100E400020E030E013964C916CE20995E881F9813D
:100E5000418169E4CE010E94570D81E001C080E02C
:100E6000DF91CF911F9108958F929F92AF92BF9281
:100E7000CF92DF92EF92FF921F93CF93DF93EC011B
:100E80006C3288F46A3208F0A4C06832B9F0693272
:100E900009F06DC0C42ED12CE12CF12C0E94E80C7D
:100EA0004B015C013DC06D3209F440C008F45FC0E5
:100EB00084EB860F823008F448C059C07C012EE1D3
:100EC000E20EF11CD0E0F70181917F018F3F39F0F4
:100ED000D03110F461E001C062E00E94AC0CDF5F31
:100EE000D63189F776C00E94E80CDC01CB01881965
:100EF0009909AA09BB09883E9340A105B10580F074
:100F0000F1E0CF1AD108E108F10828EE820E23E0C3
:100F1000921EA11CB11CC114D104E104F10419F703
:100F2000C114D104E104F104F1F653C0433018F0C8
:100F300082E090E002C085E090E0880F991F880F62
:100F4000991F05970197F1F744C0862F8F73C80F3B
:100F5000D11D411107C061E08E8D0E94AC0C60E094
:100F60008E8D13C062E08E8D0E94AC0C32C0603456
:100F700008F431C0962F9F73FE01E90FF11D868D95
:100F80008F3F39F1903120F4642F0E947D0C21C0F5
:100F9000282F30E0F901E555F64F8491F901E95623
:100FA000F64FF490F901ED57F64F1491112379F0B3
:100FB00081110E94540CE12FF0E0EE0FFF1FE85961
:100FC000FF4FA591B491EC91EF2181E009F480E00D
:100FD000898F81E001C080E0DF91CF911F91FF9068
:100FE000EF90DF90CF90BF90AF909F908F9008953B
:100FF000DC011696ED91FC91179720E030E040E07F
:1010000069E10994DC011696ED91FC91179720E0B7
:1010100030E040E068E109949A01DC011696ED9118
:10102000FC911797462F67E10994EF92FF920F9377
:101030001F93CF93DF931F92CDB7DEB77C018B0157
:10104000D8016C916731E1F078F46531A0F1F801D5
:1010500041814983D7011696ED91FC91179720E0C5
:1010600030E0C701099524C06A31A8F06E3F19F538
:10107000F8014181498369E2C7010E94570D18C0F8
:10108000F80181818983AE014F5F5F4F61E0C70145
:101090000E940C080DC00F5F1F4FD7011696ED91EF
:1010A000FC91179720E030E040E0C7010995C8CFD8
:1010B0000E5F1F4FC5CF0F90DF91CF911F910F9102
:1010C000FF90EF900895462FDC011696ED91FC916C
:1010D000179720E030E065E109949A01DC01189649
:1010E000ED91FC911997462F67E10994CF93DF9317
:1010F0001F92CDB7DEB76983AE014F5F5F4F61E0EE
:101100000E946D080F90DF91CF9108950F93FC011D
:10111000EB5BFF4F308131965081451728F4301733
:1011200030F0041720F010C03017D8F30DC0FC01C8
:10113000ED5BFF4F308131968081681738F43217AC
:1011400040F081E0261730F080E004C03217C8F389
:10115000FBCF81E00F9108953F924F925F926F9283
:101160007F928F929F92AF92BF92CF92DF92EF9237
:10117000FF920F931F93CF93DF93EC014C0183E415
:10118000880E911CF4011082329730805E01F4E4E5
:10119000AF0EB11CF50130827E01F5E4EF0EF11CBB
:1011A000F70110823397108132978081181728F049
:1011B000F12FF81B8F2FF70180838FAD181B6E0165
:1011C000F6E4CF0ED11CF60110833496708032976E
:1011D00050803196608032974080072D252D462D16
:1011E000642DCE010E948608CD58DF4F811102C0C8
:1011F000188213C081E08883442011F0F4014082FA
:10120000531410F4F5015082F7018081861508F41B
:101210006082711610F4F6017082DF91CF911F91F8
:101220000F91FF90EF90DF90CF90BF90AF909F9085
:101230008F907F906F905F904F903F9008950F93A5
:10124000DC01802FFD01ED58FF4F9081992309F4B7
:1012500063C0222309F460C0223048F0023019F440
:101260006F5F621B04C0033011F44F5F421B082FF5
:101270000170FD0180FD25C0EB5BFF4F80814817A9
:1012800008F44AC031968081481708F045C032976B
:10129000908131978081260F261730F4691718F452
:1012A0002FEF290F03C0682F6917B0F58217A0F53B
:1012B000681708F4682F291708F4922F292F261B86
:1012C00022C0ED5BFF4F8081681730F1319680813D
:1012D000681710F53296908131978081240F24177A
:1012E00030F4491718F42FEF290F03C0482F49177E
:1012F00098F4821788F4481708F4482F291708F43F
:10130000922F292F241BD696ED91FC91D79704801C
:10131000F581E02DCD0109950F9108955F926F92AF
:101320007F928F929F92AF92BF92CF92DF92EF9275
:10133000FF920F931F93CF93DF935C01F62E642EE1
:10134000EC01C15BDF4F1C81DD804C0189E7880E19
:10135000911CEE80E11ACF2CEF1408F4CE2C5B80A8
:101360000C85202F4D2D612F8A810E94CB05782E70
:10137000202F4D2D612F852D0E94D805482F6620E6
:1013800011F08A8504C08985811108C08B85F4011C
:1013900080832C2D672DC5010E941F09FE1420F0AB
:1013A000FE18D39410E0D5CF1F0D1C83DD82DF9192
:1013B000CF911F910F91FF90EF90DF90CF90BF9052
:1013C000AF909F908F907F906F905F900895FC01F9
:1013D000E60FF11D849190E0982F88273196E491D3
:1013E0008E0F911D08956F927F928F929F92AF9270
:1013F000BF92CF92DF92EF92FF920F931F93CF9302
:10140000DF93EC01062F142F7901FC01E55AFF4F01
:1014100080818130C9F070F0823001F1833039F57C
:10142000FE01E35BFF4F0190F081E02DCE010995B5
:10143000080F1DC0FE01E35BFF4F0190F081E02D1E
:10144000CE010995180F13C0FE01E35BFF4F019019
:10145000F081E02DCE010995081B09C0FE01E35B78
:10146000FF4F0190F081E02DCE010995181BFE0180
:10147000EF5AFF4F00833196108337978081918117
:1014800047962FEFE216F10409F040F5E1E6EE167B
:10149000F10420F0FE01E159FF4F07C0F1E4EF161F
:1014A000F10438F0FE01E359FF4F20813181820FB2
:1014B000931F9C012F5F3F4FF9014491442309F48E
:1014C0000EC1FC01449150E0E416F50611F40296B9
:1014D00034C0F9012491820F911DEBCFFE01EF582A
:1014E000FF4FC080D180C80ED91E860160E0C601C2
:1014F0000E94E709080F191F62E0C6010E94E70970
:10150000F4E0CF0ED11C8E159F0580F3F801849175
:1015100090E0982F88273196E4918E2B009709F45C
:10152000DEC0E816F90619F4C801039606C0F801F2
:101530003296E4910E0F111DE9CF009709F4CFC048
:101540007E01FFE4EF0EF11CF7019183808310868A
:1015500071966081C7010E94E505F7018683729646
:101560006081C7010E94E505D82EF70187835E01DF
:10157000F9E7AF0EB11CF5019081F701928781E088
:10158000911180E0F7018387FE01EE59FF4F108132
:10159000612FC7010E94E5059FEF910F01E010E068
:1015A000980101C0220F9A95EAF7782E721AFE016F
:1015B000ED59FF4FC0806C2DC7010E94E505CA940C
:1015C000480101C0880CCA94EAF7682E6D0CFE0130
:1015D000EC59FF4FC0806C2DC7010E94E505CA94ED
:1015E00001C0000FCA94EAF7C82EC01AF70106819D
:1015F00010160CF075C094848618292D482D672D7F
:1016000082810E94CB05182FF7018283292D482D56
:10161000672D83810E94D805F7018383F1E09F162F
:10162000B1F09F1678F022E09216B9F093E099128B
:101630001FC0212F2D0D982F901B01E0080F81E076
:10164000890F18C0202F210F082F0D0D13C09D18D2
:1016500021E0210F080F190D0DC091E0392F301B2B
:1016600021E0210F9D1901E0080F890F130F02C01F
:10167000082F212F482F612FCE010E948608882332
:1016800079F1F701148215828E01025A1F4F4E0123
:10169000FFE58F0E911CF8016081C7010E94E505EE
:1016A000682EF4016081C7010E94E505782E40E0B4
:1016B000662DCE010E948E0941E0672DCE010E9469
:1016C0008E0961E0C7010E94E5058111F0CFF701A5
:1016D00085818D1504F38285F501808301C0C12CBD
:1016E0008C2DDF91CF911F910F91FF90EF90DF90A4
:1016F000CF90BF90AF909F908F907F906F90089504
:10170000CF92DF92EF92FF920F931F93CF93DF93CD
:10171000EC016C0124E0C20ED11CFC01E158FF4F2A
:101720000190F081E02DC60109958E3FEFEF9E07F5
:1017300030F58E010E571F4F7E01F1E8EF0EF11CC0
:101740009C01F8014081F7016081C6010E94F30904
:10175000C15ADF4F9881913049F030F0923051F00A
:10176000933069F4F80107C0F70101C0F8019081D6
:10177000890F04C0F7019081981B892F808381E035
:1017800090E0DF91CF911F910F91FF90EF90DF904C
:10179000CF9008954091D001262F30E0240F311DC5
:1017A00021323105DCF42091D1012430C9F4FC014F
:1017B00080E090E0861758F43091D0012191DC014F
:1017C000A055BE4FA30FB11D2C930196F3CF80916E
:1017D000D001680F6093D00180E0089581E0089502
:1017E00082E0089508958FEF9FEF08958FEF9FEFA8
:1017F00008958091AF0190E09195819591090895A8
:10180000CF93DF93CB01EA01642F0E94CA0BCE0174
:10181000DF91CF910895CF93DF931F92CDB7DEB7BD
:10182000698361E0CE0101960E94CA0B81E090E0DD
:101830000F90DF91CF910895CF92DF92EF92FF92B8
:101840000F931F93CF93DF936C017A018B01C0E05C
:10185000D0E0CE15DF0581F0D8016D918D01D60164
:10186000ED91FC910190F081E02DC6010995892B45
:1018700011F02196EECF7E01C701DF91CF911F912C
:101880000F91FF90EF90DF90CF90089580E0089542
:101890000E94E91385ED8093BC008091BC0084FD1B
:1018A000FCCF1092D1010895833081F028F481306B
:1018B00099F08230A1F008958730A9F08830B9F00E
:1018C0008430D1F4809180008F7D03C080918000AE
:1018D0008F7780938000089584B58F7702C084B598
:1018E0008F7D84BD08958091B0008F7703C0809173
:1018F000B0008F7D8093B00008951F93CF93DF9346
:10190000282F30E0F901E555F64F8491F901E956A9
:10191000F64FD491F901ED57F64FC491CC23C1F0A5
:10192000162F81110E94540CEC2FF0E0EE0FFF1FD8
:10193000E758F64FA591B4919FB7F894111104C0E0
:101940008C91D095D82302C0EC91DE2BDC939FBF05
:10195000DF91CF911F910895CF93DF9390E0FC0129
:10196000E956F64F2491FC01ED57F64F84918823F8
:1019700061F190E0880F991FFC01E159F64FC59184
:10198000D491FC01E758F64FA591B491611109C0BB
:101990009FB7F8948881209582238883EC912E2329
:1019A0000BC0623061F49FB7F8948881322F309574
:1019B00083238883EC912E2B2C939FBF06C08FB777
:1019C000F894E8812E2B28838FBFDF91CF91089563
:1019D0003FB7F8948091AB019091AC01A091AD011B
:1019E000B091AE0126B5A89B05C02F3F19F0019616
:1019F000A11DB11D3FBFBA2FA92F982F8827820F95
:101A0000911DA11DB11DBC01CD0142E0660F771FE4
:101A1000881F991F4A95D1F708951F920F920FB60C
:101A20000F9211242F933F938F939F93AF93BF9364
:101A30008091A7019091A801A091A901B091AA015C
:101A40003091A60123E0230F2D3720F40196A11D2C
:101A5000B11D05C026E8230F0296A11DB11D2093DC
:101A6000A6018093A7019093A801A093A901B09328
:101A7000AA018091AB019091AC01A091AD01B09110
:101A8000AE010196A11DB11D8093AB019093AC01F5
:101A9000A093AD01B093AE01BF91AF919F918F9193
:101AA0003F912F910F900FBE0F901F901895DC0162
:101AB0001A96ED91FC911B9720E030E00994AF92CB
:101AC000BF92CF92DF92EF92FF920F931F93CF932B
:101AD000DF93EC01693031F485E291E099838883EA
:101AE0001C8A7FC079016B30E1F16F3009F444C08A
:101AF0006A3009F078C0EA85FB8520E030E040E0FC
:101B000068E20995EE81FF8120E030E040E064E189
:101B1000CE01099541E06BE4CE010E94570DE881AA
:101B2000F981448169E2CE010E94570D40E06BE4E7
:101B3000CE010E94570DE881F981448169E2CE010E
:101B40000E94570D41E06BE4CE010E94570DE881E1
:101B5000F981458169E2CE010E94570D62E171E091
:101B600007C0411103C06BE071E002C060E071E0AA
:101B7000CE010E94150835C0F9010481000F000F45
:101B8000000F13811695003210F00052185FCE013D
:101B90000E940208F701A080B1806EE3CE010E948E
:101BA00063086EE3CE010E946308D12C10686D2D8E
:101BB000600F6068CE010E946308612FCE010E9411
:101BC0006308F701C280A5016C2DCE010E940C08AC
:101BD000AC0CB11CD394F8E0DF12E9CFCE010E9427
:101BE000F80781E001C080E0DF91CF911F910F9154
:101BF000FF90EF90DF90CF90BF90AF900895CF927D
:101C0000DF92EF92FF920F931F93CF93DF93EC013C
:101C1000142F7901663131F1F8F4643109F47BC095
:101C2000653109F086C068EF0E94760841E06CE2F9
:101C3000CE010E94570D612F607FCE010E94760871
:101C400041E06CE2CE010E94570D612F6295607FEA
:101C5000CE010E94760858C0673199F06A3108F0C9
:101C600068C059C068EF0E947608612F607FCE017E
:101C70000E947608612F6295607FCE010E947608EF
:101C800048C06AEF0E94760841E06CE2CE010E94F3
:101C9000570D6701012F083058F4812F86958695DE
:101CA00086951770E8E08E9FE00CF11C11241AC095
:101CB000E6E9F1E0D6018D91982F907F908382958F
:101CC000807F8183329681E0E63AF807A1F798E0B9
:101CD000C90ED11C085046E951E060E1CE010E94D6
:101CE0006D08D9CF112381F0F70101917F01602F99
:101CF000607FCE010E947608602F6295607FCE01E2
:101D00000E9476081150EECF41E06CE2CE010E94B5
:101D1000570D81E00FC0E885F9859701412FCE016D
:101D2000DF91CF911F910F91FF90EF90DF90CF90B7
:101D3000099480E0DF91CF911F910F91FF90EF9078
:101D4000DF90CF900895AF92BF92CF92DF92EF9243
:101D5000FF920F931F93CF93DF9300D000D01F9279
:101D6000CDB7DEB78C01DC01DA96AC90DA97DB9662
:101D7000EC90DB97ED91FC91B188FE2CC12CD12C1D
:101D8000D801ED91FC9111978089D8964D915C9185
:101D9000D9971C82FD828B83B8E08B9FC0011124F0
:101DA0008C9D90018D9D300D9C9D300D1124CA019C
:101DB000820F931F9A838983D8011496ED91FC9129
:101DC00015979E012F5F3F4F41E06FE0C8010995D5
:101DD000F3948F2D8E198A1528F4BFEFCB1ADB0AE6
:101DE000FB1470F20F900F900F900F900F90DF91F7
:101DF000CF911F910F91FF90EF90DF90CF90BF9008
:101E0000AF900895FC01A081B18150969C9142ADA4
:101E1000949FA001112483E0440F551F8A95E1F798
:101E200060E070E080AD91AD0C94EE130F93909153
:101E30001B026917A0F090911C02691780F4909121
:101E40001902891760F090911A02891740F4462F01
:101E5000682F00E021E086ED91E00E941F090F91BC
:101E60000895CF93DF93EC016BAFEEA9FFA901902A
:101E7000F081E02D0995EEA9FFA90280F381E02D04
:101E8000CE01DF91CF9109941F93CF93DF93EC01A3
:101E90000E94A30E1BAD8AAD180FE881F9818189DC
:101EA000181750F0EC81FD8120E030E040E060E167
:101EB000CE01099580E00EC0FE01E658FF4F8081FB
:101EC000882319F0CE010E94020F612FCE010E94DB
:101ED000310F81E0DF91CF911F910895CF93DF9370
:101EE000EC01FC01E658FF4F8081882319F0CE01F8
:101EF0000E94020F60E0CE01DF91CF910C94310F70
:101F0000EF92FF921F93CF93DF931092EE0181E641
:101F1000E82E81E0F82E10E0D4E1C9E1F7016191EB
:101F20007F01E091D801F091D90186ED91E009950A
:101F30008F3FFFEF9F07E9F08E3F2FEF920771F37E
:101F40009C014D2F6C2F86ED91E00E94F30990913A
:101F50003102913049F030F0923041F0933039F451
:101F6000D81B05C0C80F03C0D80F01C0C81B180F6D
:101F7000D5CF812FDF91CF911F91FF90EF900895E2
:101F8000AF92BF92CF92DF92EF92FF920F931F9387
:101F9000CF93DF93D82EE62EFF24F394F60EDDE2E6
:101FA000AD2EA61A89E1B82EBD0C01E02F2D4A2DC9
:101FB0006B2D86ED91E00E941F0911E01D0DDD19CA
:101FC00099E1C92ECE0C212F4D2F6C2D86ED91E07D
:101FD0000E941F09C9E18C2F8D19D82E2F2D4A2D53
:101FE000682F86ED91E00E941F09CE19212F4D2FF9
:101FF0006C2F86ED91E00E941F092F2D4DE26B2D75
:1020000086ED91E00E941F09212F4DE26C2D86ED97
:1020100091E00E941F092F2D4DE26D2D86ED91E07C
:102020000E941F09212F4DE26C2F86ED91E00E9446
:102030001F09DF91CF911F910F91FF90EF90DF90DB
:10204000CF90BF90AF900895CF92DF92EF92FF9222
:102050000F931F93CF93DF93C82FD62F0EE1C02E7F
:10206000C61A89E1D82EDC0E6C2D8D2D0E94160F1C
:102070000C1B99E1E92EED0E602F8E2D0E94160F9C
:1020800019E1F12EFC1A6C2D8F2D0E94160F1D1BCD
:10209000602F812F0E94160FD25E6D2F8D2D0E9412
:1020A000160FC25E6C2F8E2D0E94160F6D2F8F2D76
:1020B0000E94160F6C2F812FDF91CF911F910F91EE
:1020C000FF90EF90DF90CF900C94160F1F920F921D
:1020D0000FB60F9211242F933F934F935F936F93FB
:1020E0007F938F939F93AF93BF93EF93FF938091D1
:1020F000B900887F803609F49CC068F5883209F4FD
:102100005BC090F4803109F454C038F4882309F49A
:10211000F2C0883009F44DC0F2C0883109F44CC0D7
:10212000803209F45DC0EBC0803409F468C048F423
:10213000803309F455C0883309F0E1C080937702F9
:10214000D4C0803509F44FC0883509F45DC08834A7
:1021500009F0D5C0D2C0883909F4C3C0A8F48837C3
:1021600009F467C038F4883609F463C0803709F48D
:1021700060C0C5C0883809F4B4C0803909F45FC0B4
:10218000803809F0BCC05BC0803B09F484C038F4DF
:10219000803A09F466C0883A09F47DC0B0C0803C3A
:1021A00009F4A3C0883C09F4A0C0883B09F486C0A8
:1021B000A6C080919C0210C090919B0280919A02CF
:1021C000981770F5E0919B0281E08E0F80939B023F
:1021D000F0E0E658FD4F80818093BB0085EC82C023
:1021E000809377028AC0E0919B0281E08E0F8093FA
:1021F0009B028091BB00F0E0E658FD4F80839091F8
:102200009B0280919A026AC0E0919B0281E08E0F4E
:1022100080939B028091BB00F0E0E658FD4F8083E5
:1022200080917902811169C081E08093780284EA0B
:102230005DC083E08093D10110927602CFCF809170
:102240007602803208F04DC0E091760281E08E0F78
:10225000809376028091BB00F0E0EA5AFD4F8083C4
:10226000BDCF85EC8093BC001092D10180917602A5
:10227000803230F4E0917602F0E0EA5AFD4F1082AD
:102280006091760270E086E592E0E0E0F0E009958A
:102290001092760234C084E08093D10110925502EE
:1022A0001092D001E0E0F0E009958091D001811119
:1022B00005C081E08093D0011092B001E0915502F9
:1022C00081E08E0F80935502F0E0E055FE4F808153
:1022D0008093BB00909155028091D001981708F42B
:1022E0007DCF85E88093BC000AC085EC8093BC005C
:1022F0001092D10104C0109277020E944A0CFF9103
:10230000EF91BF91AF919F918F917F916F915F916D
:102310004F913F912F910F900FBE0F901F901895E6
:10232000789484B5826084BD84B5816084BD85B5B0
:10233000826085BD85B5816085BD80916E008160BC
:1023400080936E0010928100809181008260809362
:102350008100809181008160809381008091800064
:102360008160809380008091B10084608093B1008F
:102370008091B00081608093B00080917A00846089
:1023800080937A0080917A00826080937A008091B5
:102390007A00816080937A0080917A0080688093CF
:1023A0007A001092C100E091DA01F091DB0120E0A7
:1023B00030E040E06AE086ED91E0099586ED91E03D
:1023C0000E946E0F86ED91E00E94440F8111FACFBA
:1023D00060E086ED91E00E94310FE091DA01F0912A
:1023E000DB0120E030E040E06BE086ED91E0099514
:1023F000C2E7D0E086ED91E00E946E0F49E7442EDF
:1024000040E0542E5AE7E52E50E0F52E6BE7C62E3D
:1024100060E0D62E7CE7A72E70E0B72EEDE78E2E7B
:10242000E0E09E2EFEE76F2EF0E07F2E80912102ED
:10243000909122028257904009F4A8C0D0932202C2
:10244000C0932102E2E7F0E0849180933202E3E757
:10245000F0E0849180933302E4E7F0E0849180938C
:102460003402E5E7F0E0849180933502E6E7F0E09E
:10247000849180933602E7E7F0E0849180933702FD
:10248000E8E7F0E0849180933802F2018491809330
:102490003902F701849180933A02F6018491809386
:1024A0003B02F501849180933C02F4018491809376
:1024B0003D02F301849180933E02EFE7F0E0E49166
:1024C000E0933F02E0E8F0E0E491E0934002E1E8CD
:1024D000F0E0E491E0934102E2E8F0E0E491E0937F
:1024E000420261E182E790E00E94E7099093440292
:1024F0008093430263E182E790E00E94E7099093B2
:1025000046028093450265E182E790E00E94E70978
:102510009093480280934702809121029091220279
:10252000892BA1F180913F0280934B0240914002A0
:1025300040934C0290914A02992341F1913069F401
:1025400090914102891714F490934B0280914202BA
:102550008417E4F480934C0219C030913C0220911E
:102560003E02082E000C990B622F022E000C770BF6
:10257000630F711D37FD7A95861797071CF4320F8C
:1025800030934B02241714F420934C028BE095E017
:102590009093D9018093D8010E94800F04E22FE12B
:1025A00049E164E186ED91E00E94860881110BC04B
:1025B00003E32FE148E264E186ED91E00E948608A2
:1025C000882391F11CC065E080E00E94241010E097
:1025D00025E0322E36EF232E0CEF1F5F812F880F60
:1025E0008F5F080F632D812F0E942410131500F7B1
:1025F00007FDF3CF3A9423942394020DEECF65E0C8
:1026000080E00E94C00F10E085E0382E96EF292E62
:102610000CEF1F5F812F880F8F5F080F632D812FB5
:102620000E94C00F131538F086ED91E00E94440F10
:102630008111FCCE07C007FDECCF3A94239423947C
:10264000020DE7CF80E090E0892B09F4D3CE0E9401
:102650000000D0CECF931092A00210929F0288EE7D
:1026600093E0A0E0B0E08093A1029093A202A09337
:10267000A302B093A40281E491E090939E02809320
:102680009D021092D5011092D4018BE095E09093B9
:1026900052028093510210925302109254021092EF
:1026A000EE0183E591E09093D3018093D2011092E3
:1026B000D7011092D6011092EB011092E201109214
:1026C000E3011092E4011092E5018FEF8093EC0199
:1026D0008093F001E4EFF1E08AE092E02FEFCFEF9A
:1026E00021938E179F07D9F78FE59DE09093DB012B
:1026F0008093DA018FEF9DE09093DD018093DC0100
:102700008EE396E09093DF018093DE0184E397E00F
:102710009093E1018093E00120E030E040E069E047
:1027200086ED91E00E945F0D10922202109221022C
:102730008BE795E090930B0280930A0289EA92E07E
:1027400090930F0280930E0281E08093100210920A
:10275000110210922E0210924E0280934F0280932B
:1027600050028BE591E090930D0280930C0286ED70
:1027700091E00E94360510921D0210921F02C09334
:102780001E02C0932002E0910C02F0910D02028023
:10279000F381E02D86ED91E0099589EC95E0909329
:1027A000240280932302109231028DE08093F40181
:1027B0008BE08093F5018AE08093FD0188E08093AF
:1027C000FF01CF910895EE0FFF1F0590F491E02DCA
:1027D000099481E090E0F8940C94F513DC0101C0B9
:0E27E0006D9341505040E0F70895F894FFCFFC
:1027EE0018153815081534150119FF181538150C5C
:1027FE0019FFFE6418FE0A15381508150615021580
:10280E0001FE0419FF010005050106148C40420F5C
:10281E000003041E28100800008000400000000085
:10282E00000B0C000C3B06F20BF90BF60BF30B0036
:10283E00000000800B12063B063A063605AC081562
:0A284E000555562053616665000031
:00000001FF
